{
	"contracts/ArithmeticOperations.sol": {
		"ArithmeticOperations": {
			"abi": [
				{
					"inputs": [],
					"name": "Addition",
					"outputs": [
						{
							"internalType": "uint256",
							"name": "",
							"type": "uint256"
						}
					],
					"stateMutability": "view",
					"type": "function"
				},
				{
					"inputs": [],
					"name": "Division",
					"outputs": [
						{
							"internalType": "uint256",
							"name": "",
							"type": "uint256"
						}
					],
					"stateMutability": "view",
					"type": "function"
				},
				{
					"inputs": [],
					"name": "Multiplication",
					"outputs": [
						{
							"internalType": "uint256",
							"name": "",
							"type": "uint256"
						}
					],
					"stateMutability": "view",
					"type": "function"
				},
				{
					"inputs": [],
					"name": "Subtraction",
					"outputs": [
						{
							"internalType": "int256",
							"name": "",
							"type": "int256"
						}
					],
					"stateMutability": "view",
					"type": "function"
				},
				{
					"inputs": [
						{
							"internalType": "uint256",
							"name": "a",
							"type": "uint256"
						},
						{
							"internalType": "uint256",
							"name": "b",
							"type": "uint256"
						}
					],
					"name": "add",
					"outputs": [
						{
							"internalType": "uint256",
							"name": "",
							"type": "uint256"
						}
					],
					"stateMutability": "nonpayable",
					"type": "function"
				},
				{
					"inputs": [
						{
							"internalType": "uint256",
							"name": "a",
							"type": "uint256"
						},
						{
							"internalType": "uint256",
							"name": "b",
							"type": "uint256"
						}
					],
					"name": "divide",
					"outputs": [
						{
							"internalType": "uint256",
							"name": "",
							"type": "uint256"
						}
					],
					"stateMutability": "nonpayable",
					"type": "function"
				},
				{
					"inputs": [
						{
							"internalType": "uint256",
							"name": "a",
							"type": "uint256"
						},
						{
							"internalType": "uint256",
							"name": "b",
							"type": "uint256"
						}
					],
					"name": "multiply",
					"outputs": [
						{
							"internalType": "uint256",
							"name": "",
							"type": "uint256"
						}
					],
					"stateMutability": "nonpayable",
					"type": "function"
				},
				{
					"inputs": [
						{
							"internalType": "int256",
							"name": "a",
							"type": "int256"
						},
						{
							"internalType": "int256",
							"name": "b",
							"type": "int256"
						}
					],
					"name": "subtract",
					"outputs": [
						{
							"internalType": "int256",
							"name": "",
							"type": "int256"
						}
					],
					"stateMutability": "nonpayable",
					"type": "function"
				}
			],
			"devdoc": {
				"kind": "dev",
				"methods": {},
				"version": 1
			},
			"evm": {
				"assembly": "    /* \"contracts/ArithmeticOperations.sol\":59:840  contract ArithmeticOperations{... */\n  mstore(0x40, 0x80)\n  callvalue\n  dup1\n  iszero\n  tag_1\n  jumpi\n  0x00\n  dup1\n  revert\ntag_1:\n  pop\n  dataSize(sub_0)\n  dup1\n  dataOffset(sub_0)\n  0x00\n  codecopy\n  0x00\n  return\nstop\n\nsub_0: assembly {\n        /* \"contracts/ArithmeticOperations.sol\":59:840  contract ArithmeticOperations{... */\n      mstore(0x40, 0x80)\n      callvalue\n      dup1\n      iszero\n      tag_1\n      jumpi\n      0x00\n      dup1\n      revert\n    tag_1:\n      pop\n      jumpi(tag_2, lt(calldatasize, 0x04))\n      shr(0xe0, calldataload(0x00))\n      dup1\n      0x771602f7\n      gt\n      tag_11\n      jumpi\n      dup1\n      0x771602f7\n      eq\n      tag_7\n      jumpi\n      dup1\n      0xb93ea812\n      eq\n      tag_8\n      jumpi\n      dup1\n      0xe7fa24c2\n      eq\n      tag_9\n      jumpi\n      dup1\n      0xf88e9fbf\n      eq\n      tag_10\n      jumpi\n      jump(tag_2)\n    tag_11:\n      dup1\n      0x165c4a16\n      eq\n      tag_3\n      jumpi\n      dup1\n      0x235364aa\n      eq\n      tag_4\n      jumpi\n      dup1\n      0x27e61563\n      eq\n      tag_5\n      jumpi\n      dup1\n      0x28aa0179\n      eq\n      tag_6\n      jumpi\n    tag_2:\n      0x00\n      dup1\n      revert\n        /* \"contracts/ArithmeticOperations.sol\":495:649  function multiply(uint a, uint b) public returns(uint){... */\n    tag_3:\n      tag_12\n      0x04\n      dup1\n      calldatasize\n      sub\n      dup2\n      add\n      swap1\n      tag_13\n      swap2\n      swap1\n      tag_14\n      jump\t// in\n    tag_13:\n      tag_15\n      jump\t// in\n    tag_12:\n      mload(0x40)\n      tag_16\n      swap2\n      swap1\n      tag_17\n      jump\t// in\n    tag_16:\n      mload(0x40)\n      dup1\n      swap2\n      sub\n      swap1\n      return\n        /* \"contracts/ArithmeticOperations.sol\":120:142  int public Subtraction */\n    tag_4:\n      tag_18\n      tag_19\n      jump\t// in\n    tag_18:\n      mload(0x40)\n      tag_20\n      swap2\n      swap1\n      tag_21\n      jump\t// in\n    tag_20:\n      mload(0x40)\n      dup1\n      swap2\n      sub\n      swap1\n      return\n        /* \"contracts/ArithmeticOperations.sol\":94:114  uint public Addition */\n    tag_5:\n      tag_22\n      tag_23\n      jump\t// in\n    tag_22:\n      mload(0x40)\n      tag_24\n      swap2\n      swap1\n      tag_17\n      jump\t// in\n    tag_24:\n      mload(0x40)\n      dup1\n      swap2\n      sub\n      swap1\n      return\n        /* \"contracts/ArithmeticOperations.sol\":148:174  uint public Multiplication */\n    tag_6:\n      tag_25\n      tag_26\n      jump\t// in\n    tag_25:\n      mload(0x40)\n      tag_27\n      swap2\n      swap1\n      tag_17\n      jump\t// in\n    tag_27:\n      mload(0x40)\n      dup1\n      swap2\n      sub\n      swap1\n      return\n        /* \"contracts/ArithmeticOperations.sol\":207:339  function add(uint a, uint b) public returns(uint){... */\n    tag_7:\n      tag_28\n      0x04\n      dup1\n      calldatasize\n      sub\n      dup2\n      add\n      swap1\n      tag_29\n      swap2\n      swap1\n      tag_14\n      jump\t// in\n    tag_29:\n      tag_30\n      jump\t// in\n    tag_28:\n      mload(0x40)\n      tag_31\n      swap2\n      swap1\n      tag_17\n      jump\t// in\n    tag_31:\n      mload(0x40)\n      dup1\n      swap2\n      sub\n      swap1\n      return\n        /* \"contracts/ArithmeticOperations.sol\":344:490  function subtract(int a, int b) public returns(int){... */\n    tag_8:\n      tag_32\n      0x04\n      dup1\n      calldatasize\n      sub\n      dup2\n      add\n      swap1\n      tag_33\n      swap2\n      swap1\n      tag_34\n      jump\t// in\n    tag_33:\n      tag_35\n      jump\t// in\n    tag_32:\n      mload(0x40)\n      tag_36\n      swap2\n      swap1\n      tag_21\n      jump\t// in\n    tag_36:\n      mload(0x40)\n      dup1\n      swap2\n      sub\n      swap1\n      return\n        /* \"contracts/ArithmeticOperations.sol\":180:200  uint public Division */\n    tag_9:\n      tag_37\n      tag_38\n      jump\t// in\n    tag_37:\n      mload(0x40)\n      tag_39\n      swap2\n      swap1\n      tag_17\n      jump\t// in\n    tag_39:\n      mload(0x40)\n      dup1\n      swap2\n      sub\n      swap1\n      return\n        /* \"contracts/ArithmeticOperations.sol\":654:838  function divide(uint a, uint b) public returns(uint){... */\n    tag_10:\n      tag_40\n      0x04\n      dup1\n      calldatasize\n      sub\n      dup2\n      add\n      swap1\n      tag_41\n      swap2\n      swap1\n      tag_14\n      jump\t// in\n    tag_41:\n      tag_42\n      jump\t// in\n    tag_40:\n      mload(0x40)\n      tag_43\n      swap2\n      swap1\n      tag_17\n      jump\t// in\n    tag_43:\n      mload(0x40)\n      dup1\n      swap2\n      sub\n      swap1\n      return\n        /* \"contracts/ArithmeticOperations.sol\":495:649  function multiply(uint a, uint b) public returns(uint){... */\n    tag_15:\n        /* \"contracts/ArithmeticOperations.sol\":544:548  uint */\n      0x00\n        /* \"contracts/ArithmeticOperations.sol\":609:610  b */\n      dup2\n        /* \"contracts/ArithmeticOperations.sol\":605:606  a */\n      dup4\n        /* \"contracts/ArithmeticOperations.sol\":605:610  a * b */\n      tag_45\n      swap2\n      swap1\n      tag_46\n      jump\t// in\n    tag_45:\n        /* \"contracts/ArithmeticOperations.sol\":588:602  Multiplication */\n      0x02\n        /* \"contracts/ArithmeticOperations.sol\":588:610  Multiplication = a * b */\n      dup2\n      swap1\n      sstore\n      pop\n        /* \"contracts/ArithmeticOperations.sol\":627:641  Multiplication */\n      sload(0x02)\n        /* \"contracts/ArithmeticOperations.sol\":620:642  return(Multiplication) */\n      swap1\n      pop\n        /* \"contracts/ArithmeticOperations.sol\":495:649  function multiply(uint a, uint b) public returns(uint){... */\n      swap3\n      swap2\n      pop\n      pop\n      jump\t// out\n        /* \"contracts/ArithmeticOperations.sol\":120:142  int public Subtraction */\n    tag_19:\n      sload(0x01)\n      dup2\n      jump\t// out\n        /* \"contracts/ArithmeticOperations.sol\":94:114  uint public Addition */\n    tag_23:\n      sload(0x00)\n      dup2\n      jump\t// out\n        /* \"contracts/ArithmeticOperations.sol\":148:174  uint public Multiplication */\n    tag_26:\n      sload(0x02)\n      dup2\n      jump\t// out\n        /* \"contracts/ArithmeticOperations.sol\":207:339  function add(uint a, uint b) public returns(uint){... */\n    tag_30:\n        /* \"contracts/ArithmeticOperations.sol\":251:255  uint */\n      0x00\n        /* \"contracts/ArithmeticOperations.sol\":305:306  b */\n      dup2\n        /* \"contracts/ArithmeticOperations.sol\":301:302  a */\n      dup4\n        /* \"contracts/ArithmeticOperations.sol\":301:306  a + b */\n      tag_48\n      swap2\n      swap1\n      tag_49\n      jump\t// in\n    tag_48:\n        /* \"contracts/ArithmeticOperations.sol\":290:298  Addition */\n      0x00\n        /* \"contracts/ArithmeticOperations.sol\":290:306  Addition = a + b */\n      dup2\n      swap1\n      sstore\n      pop\n        /* \"contracts/ArithmeticOperations.sol\":323:331  Addition */\n      sload(0x00)\n        /* \"contracts/ArithmeticOperations.sol\":316:332  return(Addition) */\n      swap1\n      pop\n        /* \"contracts/ArithmeticOperations.sol\":207:339  function add(uint a, uint b) public returns(uint){... */\n      swap3\n      swap2\n      pop\n      pop\n      jump\t// out\n        /* \"contracts/ArithmeticOperations.sol\":344:490  function subtract(int a, int b) public returns(int){... */\n    tag_35:\n        /* \"contracts/ArithmeticOperations.sol\":391:394  int */\n      0x00\n        /* \"contracts/ArithmeticOperations.sol\":453:454  b */\n      dup2\n        /* \"contracts/ArithmeticOperations.sol\":449:450  a */\n      dup4\n        /* \"contracts/ArithmeticOperations.sol\":449:454  a - b */\n      tag_51\n      swap2\n      swap1\n      tag_52\n      jump\t// in\n    tag_51:\n        /* \"contracts/ArithmeticOperations.sol\":435:446  Subtraction */\n      0x01\n        /* \"contracts/ArithmeticOperations.sol\":435:454  Subtraction = a - b */\n      dup2\n      swap1\n      sstore\n      pop\n        /* \"contracts/ArithmeticOperations.sol\":471:482  Subtraction */\n      sload(0x01)\n        /* \"contracts/ArithmeticOperations.sol\":464:483  return(Subtraction) */\n      swap1\n      pop\n        /* \"contracts/ArithmeticOperations.sol\":344:490  function subtract(int a, int b) public returns(int){... */\n      swap3\n      swap2\n      pop\n      pop\n      jump\t// out\n        /* \"contracts/ArithmeticOperations.sol\":180:200  uint public Division */\n    tag_38:\n      sload(0x03)\n      dup2\n      jump\t// out\n        /* \"contracts/ArithmeticOperations.sol\":654:838  function divide(uint a, uint b) public returns(uint){... */\n    tag_42:\n        /* \"contracts/ArithmeticOperations.sol\":701:705  uint */\n      0x00\n        /* \"contracts/ArithmeticOperations.sol\":755:756  0 */\n      dup1\n        /* \"contracts/ArithmeticOperations.sol\":750:751  b */\n      dup3\n        /* \"contracts/ArithmeticOperations.sol\":750:756  b != 0 */\n      sub\n        /* \"contracts/ArithmeticOperations.sol\":742:779  require(b != 0, \"b should not be 0.\") */\n      tag_54\n      jumpi\n      mload(0x40)\n      0x08c379a000000000000000000000000000000000000000000000000000000000\n      dup2\n      mstore\n      0x04\n      add\n      tag_55\n      swap1\n      tag_56\n      jump\t// in\n    tag_55:\n      mload(0x40)\n      dup1\n      swap2\n      sub\n      swap1\n      revert\n    tag_54:\n        /* \"contracts/ArithmeticOperations.sol\":804:805  b */\n      dup2\n        /* \"contracts/ArithmeticOperations.sol\":800:801  a */\n      dup4\n        /* \"contracts/ArithmeticOperations.sol\":800:805  a / b */\n      tag_57\n      swap2\n      swap1\n      tag_58\n      jump\t// in\n    tag_57:\n        /* \"contracts/ArithmeticOperations.sol\":789:797  Division */\n      0x03\n        /* \"contracts/ArithmeticOperations.sol\":789:805  Division = a / b */\n      dup2\n      swap1\n      sstore\n      pop\n        /* \"contracts/ArithmeticOperations.sol\":822:830  Division */\n      sload(0x03)\n        /* \"contracts/ArithmeticOperations.sol\":815:831  return(Division) */\n      swap1\n      pop\n        /* \"contracts/ArithmeticOperations.sol\":654:838  function divide(uint a, uint b) public returns(uint){... */\n      swap3\n      swap2\n      pop\n      pop\n      jump\t// out\n        /* \"#utility.yul\":88:205   */\n    tag_60:\n        /* \"#utility.yul\":197:198   */\n      0x00\n        /* \"#utility.yul\":194:195   */\n      dup1\n        /* \"#utility.yul\":187:199   */\n      revert\n        /* \"#utility.yul\":334:411   */\n    tag_62:\n        /* \"#utility.yul\":371:378   */\n      0x00\n        /* \"#utility.yul\":400:405   */\n      dup2\n        /* \"#utility.yul\":389:405   */\n      swap1\n      pop\n        /* \"#utility.yul\":334:411   */\n      swap2\n      swap1\n      pop\n      jump\t// out\n        /* \"#utility.yul\":417:539   */\n    tag_63:\n        /* \"#utility.yul\":490:514   */\n      tag_81\n        /* \"#utility.yul\":508:513   */\n      dup2\n        /* \"#utility.yul\":490:514   */\n      tag_62\n      jump\t// in\n    tag_81:\n        /* \"#utility.yul\":483:488   */\n      dup2\n        /* \"#utility.yul\":480:515   */\n      eq\n        /* \"#utility.yul\":470:533   */\n      tag_82\n      jumpi\n        /* \"#utility.yul\":529:530   */\n      0x00\n        /* \"#utility.yul\":526:527   */\n      dup1\n        /* \"#utility.yul\":519:531   */\n      revert\n        /* \"#utility.yul\":470:533   */\n    tag_82:\n        /* \"#utility.yul\":417:539   */\n      pop\n      jump\t// out\n        /* \"#utility.yul\":545:684   */\n    tag_64:\n        /* \"#utility.yul\":591:596   */\n      0x00\n        /* \"#utility.yul\":629:635   */\n      dup2\n        /* \"#utility.yul\":616:636   */\n      calldataload\n        /* \"#utility.yul\":607:636   */\n      swap1\n      pop\n        /* \"#utility.yul\":645:678   */\n      tag_84\n        /* \"#utility.yul\":672:677   */\n      dup2\n        /* \"#utility.yul\":645:678   */\n      tag_63\n      jump\t// in\n    tag_84:\n        /* \"#utility.yul\":545:684   */\n      swap3\n      swap2\n      pop\n      pop\n      jump\t// out\n        /* \"#utility.yul\":690:1164   */\n    tag_14:\n        /* \"#utility.yul\":758:764   */\n      0x00\n        /* \"#utility.yul\":766:772   */\n      dup1\n        /* \"#utility.yul\":815:817   */\n      0x40\n        /* \"#utility.yul\":803:812   */\n      dup4\n        /* \"#utility.yul\":794:801   */\n      dup6\n        /* \"#utility.yul\":790:813   */\n      sub\n        /* \"#utility.yul\":786:818   */\n      slt\n        /* \"#utility.yul\":783:902   */\n      iszero\n      tag_86\n      jumpi\n        /* \"#utility.yul\":821:900   */\n      tag_87\n      tag_60\n      jump\t// in\n    tag_87:\n        /* \"#utility.yul\":783:902   */\n    tag_86:\n        /* \"#utility.yul\":941:942   */\n      0x00\n        /* \"#utility.yul\":966:1019   */\n      tag_88\n        /* \"#utility.yul\":1011:1018   */\n      dup6\n        /* \"#utility.yul\":1002:1008   */\n      dup3\n        /* \"#utility.yul\":991:1000   */\n      dup7\n        /* \"#utility.yul\":987:1009   */\n      add\n        /* \"#utility.yul\":966:1019   */\n      tag_64\n      jump\t// in\n    tag_88:\n        /* \"#utility.yul\":956:1019   */\n      swap3\n      pop\n        /* \"#utility.yul\":912:1029   */\n      pop\n        /* \"#utility.yul\":1068:1070   */\n      0x20\n        /* \"#utility.yul\":1094:1147   */\n      tag_89\n        /* \"#utility.yul\":1139:1146   */\n      dup6\n        /* \"#utility.yul\":1130:1136   */\n      dup3\n        /* \"#utility.yul\":1119:1128   */\n      dup7\n        /* \"#utility.yul\":1115:1137   */\n      add\n        /* \"#utility.yul\":1094:1147   */\n      tag_64\n      jump\t// in\n    tag_89:\n        /* \"#utility.yul\":1084:1147   */\n      swap2\n      pop\n        /* \"#utility.yul\":1039:1157   */\n      pop\n        /* \"#utility.yul\":690:1164   */\n      swap3\n      pop\n      swap3\n      swap1\n      pop\n      jump\t// out\n        /* \"#utility.yul\":1170:1288   */\n    tag_65:\n        /* \"#utility.yul\":1257:1281   */\n      tag_91\n        /* \"#utility.yul\":1275:1280   */\n      dup2\n        /* \"#utility.yul\":1257:1281   */\n      tag_62\n      jump\t// in\n    tag_91:\n        /* \"#utility.yul\":1252:1255   */\n      dup3\n        /* \"#utility.yul\":1245:1282   */\n      mstore\n        /* \"#utility.yul\":1170:1288   */\n      pop\n      pop\n      jump\t// out\n        /* \"#utility.yul\":1294:1516   */\n    tag_17:\n        /* \"#utility.yul\":1387:1391   */\n      0x00\n        /* \"#utility.yul\":1425:1427   */\n      0x20\n        /* \"#utility.yul\":1414:1423   */\n      dup3\n        /* \"#utility.yul\":1410:1428   */\n      add\n        /* \"#utility.yul\":1402:1428   */\n      swap1\n      pop\n        /* \"#utility.yul\":1438:1509   */\n      tag_93\n        /* \"#utility.yul\":1506:1507   */\n      0x00\n        /* \"#utility.yul\":1495:1504   */\n      dup4\n        /* \"#utility.yul\":1491:1508   */\n      add\n        /* \"#utility.yul\":1482:1488   */\n      dup5\n        /* \"#utility.yul\":1438:1509   */\n      tag_65\n      jump\t// in\n    tag_93:\n        /* \"#utility.yul\":1294:1516   */\n      swap3\n      swap2\n      pop\n      pop\n      jump\t// out\n        /* \"#utility.yul\":1522:1598   */\n    tag_66:\n        /* \"#utility.yul\":1558:1565   */\n      0x00\n        /* \"#utility.yul\":1587:1592   */\n      dup2\n        /* \"#utility.yul\":1576:1592   */\n      swap1\n      pop\n        /* \"#utility.yul\":1522:1598   */\n      swap2\n      swap1\n      pop\n      jump\t// out\n        /* \"#utility.yul\":1604:1719   */\n    tag_67:\n        /* \"#utility.yul\":1689:1712   */\n      tag_96\n        /* \"#utility.yul\":1706:1711   */\n      dup2\n        /* \"#utility.yul\":1689:1712   */\n      tag_66\n      jump\t// in\n    tag_96:\n        /* \"#utility.yul\":1684:1687   */\n      dup3\n        /* \"#utility.yul\":1677:1713   */\n      mstore\n        /* \"#utility.yul\":1604:1719   */\n      pop\n      pop\n      jump\t// out\n        /* \"#utility.yul\":1725:1943   */\n    tag_21:\n        /* \"#utility.yul\":1816:1820   */\n      0x00\n        /* \"#utility.yul\":1854:1856   */\n      0x20\n        /* \"#utility.yul\":1843:1852   */\n      dup3\n        /* \"#utility.yul\":1839:1857   */\n      add\n        /* \"#utility.yul\":1831:1857   */\n      swap1\n      pop\n        /* \"#utility.yul\":1867:1936   */\n      tag_98\n        /* \"#utility.yul\":1933:1934   */\n      0x00\n        /* \"#utility.yul\":1922:1931   */\n      dup4\n        /* \"#utility.yul\":1918:1935   */\n      add\n        /* \"#utility.yul\":1909:1915   */\n      dup5\n        /* \"#utility.yul\":1867:1936   */\n      tag_67\n      jump\t// in\n    tag_98:\n        /* \"#utility.yul\":1725:1943   */\n      swap3\n      swap2\n      pop\n      pop\n      jump\t// out\n        /* \"#utility.yul\":1949:2069   */\n    tag_68:\n        /* \"#utility.yul\":2021:2044   */\n      tag_100\n        /* \"#utility.yul\":2038:2043   */\n      dup2\n        /* \"#utility.yul\":2021:2044   */\n      tag_66\n      jump\t// in\n    tag_100:\n        /* \"#utility.yul\":2014:2019   */\n      dup2\n        /* \"#utility.yul\":2011:2045   */\n      eq\n        /* \"#utility.yul\":2001:2063   */\n      tag_101\n      jumpi\n        /* \"#utility.yul\":2059:2060   */\n      0x00\n        /* \"#utility.yul\":2056:2057   */\n      dup1\n        /* \"#utility.yul\":2049:2061   */\n      revert\n        /* \"#utility.yul\":2001:2063   */\n    tag_101:\n        /* \"#utility.yul\":1949:2069   */\n      pop\n      jump\t// out\n        /* \"#utility.yul\":2075:2212   */\n    tag_69:\n        /* \"#utility.yul\":2120:2125   */\n      0x00\n        /* \"#utility.yul\":2158:2164   */\n      dup2\n        /* \"#utility.yul\":2145:2165   */\n      calldataload\n        /* \"#utility.yul\":2136:2165   */\n      swap1\n      pop\n        /* \"#utility.yul\":2174:2206   */\n      tag_103\n        /* \"#utility.yul\":2200:2205   */\n      dup2\n        /* \"#utility.yul\":2174:2206   */\n      tag_68\n      jump\t// in\n    tag_103:\n        /* \"#utility.yul\":2075:2212   */\n      swap3\n      swap2\n      pop\n      pop\n      jump\t// out\n        /* \"#utility.yul\":2218:2688   */\n    tag_34:\n        /* \"#utility.yul\":2284:2290   */\n      0x00\n        /* \"#utility.yul\":2292:2298   */\n      dup1\n        /* \"#utility.yul\":2341:2343   */\n      0x40\n        /* \"#utility.yul\":2329:2338   */\n      dup4\n        /* \"#utility.yul\":2320:2327   */\n      dup6\n        /* \"#utility.yul\":2316:2339   */\n      sub\n        /* \"#utility.yul\":2312:2344   */\n      slt\n        /* \"#utility.yul\":2309:2428   */\n      iszero\n      tag_105\n      jumpi\n        /* \"#utility.yul\":2347:2426   */\n      tag_106\n      tag_60\n      jump\t// in\n    tag_106:\n        /* \"#utility.yul\":2309:2428   */\n    tag_105:\n        /* \"#utility.yul\":2467:2468   */\n      0x00\n        /* \"#utility.yul\":2492:2544   */\n      tag_107\n        /* \"#utility.yul\":2536:2543   */\n      dup6\n        /* \"#utility.yul\":2527:2533   */\n      dup3\n        /* \"#utility.yul\":2516:2525   */\n      dup7\n        /* \"#utility.yul\":2512:2534   */\n      add\n        /* \"#utility.yul\":2492:2544   */\n      tag_69\n      jump\t// in\n    tag_107:\n        /* \"#utility.yul\":2482:2544   */\n      swap3\n      pop\n        /* \"#utility.yul\":2438:2554   */\n      pop\n        /* \"#utility.yul\":2593:2595   */\n      0x20\n        /* \"#utility.yul\":2619:2671   */\n      tag_108\n        /* \"#utility.yul\":2663:2670   */\n      dup6\n        /* \"#utility.yul\":2654:2660   */\n      dup3\n        /* \"#utility.yul\":2643:2652   */\n      dup7\n        /* \"#utility.yul\":2639:2661   */\n      add\n        /* \"#utility.yul\":2619:2671   */\n      tag_69\n      jump\t// in\n    tag_108:\n        /* \"#utility.yul\":2609:2671   */\n      swap2\n      pop\n        /* \"#utility.yul\":2564:2681   */\n      pop\n        /* \"#utility.yul\":2218:2688   */\n      swap3\n      pop\n      swap3\n      swap1\n      pop\n      jump\t// out\n        /* \"#utility.yul\":2694:2874   */\n    tag_70:\n        /* \"#utility.yul\":2742:2819   */\n      0x4e487b7100000000000000000000000000000000000000000000000000000000\n        /* \"#utility.yul\":2739:2740   */\n      0x00\n        /* \"#utility.yul\":2732:2820   */\n      mstore\n        /* \"#utility.yul\":2839:2843   */\n      0x11\n        /* \"#utility.yul\":2836:2837   */\n      0x04\n        /* \"#utility.yul\":2829:2844   */\n      mstore\n        /* \"#utility.yul\":2863:2867   */\n      0x24\n        /* \"#utility.yul\":2860:2861   */\n      0x00\n        /* \"#utility.yul\":2853:2868   */\n      revert\n        /* \"#utility.yul\":2880:3290   */\n    tag_46:\n        /* \"#utility.yul\":2920:2927   */\n      0x00\n        /* \"#utility.yul\":2943:2963   */\n      tag_111\n        /* \"#utility.yul\":2961:2962   */\n      dup3\n        /* \"#utility.yul\":2943:2963   */\n      tag_62\n      jump\t// in\n    tag_111:\n        /* \"#utility.yul\":2938:2963   */\n      swap2\n      pop\n        /* \"#utility.yul\":2977:2997   */\n      tag_112\n        /* \"#utility.yul\":2995:2996   */\n      dup4\n        /* \"#utility.yul\":2977:2997   */\n      tag_62\n      jump\t// in\n    tag_112:\n        /* \"#utility.yul\":2972:2997   */\n      swap3\n      pop\n        /* \"#utility.yul\":3032:3033   */\n      dup3\n        /* \"#utility.yul\":3029:3030   */\n      dup3\n        /* \"#utility.yul\":3025:3034   */\n      mul\n        /* \"#utility.yul\":3054:3084   */\n      tag_113\n        /* \"#utility.yul\":3072:3083   */\n      dup2\n        /* \"#utility.yul\":3054:3084   */\n      tag_62\n      jump\t// in\n    tag_113:\n        /* \"#utility.yul\":3043:3084   */\n      swap2\n      pop\n        /* \"#utility.yul\":3233:3234   */\n      dup3\n        /* \"#utility.yul\":3224:3231   */\n      dup3\n        /* \"#utility.yul\":3220:3235   */\n      div\n        /* \"#utility.yul\":3217:3218   */\n      dup5\n        /* \"#utility.yul\":3214:3236   */\n      eq\n        /* \"#utility.yul\":3194:3195   */\n      dup4\n        /* \"#utility.yul\":3187:3196   */\n      iszero\n        /* \"#utility.yul\":3167:3250   */\n      or\n        /* \"#utility.yul\":3144:3283   */\n      tag_114\n      jumpi\n        /* \"#utility.yul\":3263:3281   */\n      tag_115\n      tag_70\n      jump\t// in\n    tag_115:\n        /* \"#utility.yul\":3144:3283   */\n    tag_114:\n        /* \"#utility.yul\":2928:3290   */\n      pop\n        /* \"#utility.yul\":2880:3290   */\n      swap3\n      swap2\n      pop\n      pop\n      jump\t// out\n        /* \"#utility.yul\":3296:3487   */\n    tag_49:\n        /* \"#utility.yul\":3336:3339   */\n      0x00\n        /* \"#utility.yul\":3355:3375   */\n      tag_117\n        /* \"#utility.yul\":3373:3374   */\n      dup3\n        /* \"#utility.yul\":3355:3375   */\n      tag_62\n      jump\t// in\n    tag_117:\n        /* \"#utility.yul\":3350:3375   */\n      swap2\n      pop\n        /* \"#utility.yul\":3389:3409   */\n      tag_118\n        /* \"#utility.yul\":3407:3408   */\n      dup4\n        /* \"#utility.yul\":3389:3409   */\n      tag_62\n      jump\t// in\n    tag_118:\n        /* \"#utility.yul\":3384:3409   */\n      swap3\n      pop\n        /* \"#utility.yul\":3432:3433   */\n      dup3\n        /* \"#utility.yul\":3429:3430   */\n      dup3\n        /* \"#utility.yul\":3425:3434   */\n      add\n        /* \"#utility.yul\":3418:3434   */\n      swap1\n      pop\n        /* \"#utility.yul\":3453:3456   */\n      dup1\n        /* \"#utility.yul\":3450:3451   */\n      dup3\n        /* \"#utility.yul\":3447:3457   */\n      gt\n        /* \"#utility.yul\":3444:3480   */\n      iszero\n      tag_119\n      jumpi\n        /* \"#utility.yul\":3460:3478   */\n      tag_120\n      tag_70\n      jump\t// in\n    tag_120:\n        /* \"#utility.yul\":3444:3480   */\n    tag_119:\n        /* \"#utility.yul\":3296:3487   */\n      swap3\n      swap2\n      pop\n      pop\n      jump\t// out\n        /* \"#utility.yul\":3493:3865   */\n    tag_52:\n        /* \"#utility.yul\":3532:3536   */\n      0x00\n        /* \"#utility.yul\":3552:3571   */\n      tag_122\n        /* \"#utility.yul\":3569:3570   */\n      dup3\n        /* \"#utility.yul\":3552:3571   */\n      tag_66\n      jump\t// in\n    tag_122:\n        /* \"#utility.yul\":3547:3571   */\n      swap2\n      pop\n        /* \"#utility.yul\":3585:3604   */\n      tag_123\n        /* \"#utility.yul\":3602:3603   */\n      dup4\n        /* \"#utility.yul\":3585:3604   */\n      tag_66\n      jump\t// in\n    tag_123:\n        /* \"#utility.yul\":3580:3604   */\n      swap3\n      pop\n        /* \"#utility.yul\":3628:3629   */\n      dup3\n        /* \"#utility.yul\":3625:3626   */\n      dup3\n        /* \"#utility.yul\":3621:3630   */\n      sub\n        /* \"#utility.yul\":3613:3630   */\n      swap1\n      pop\n        /* \"#utility.yul\":3822:3823   */\n      dup2\n        /* \"#utility.yul\":3816:3820   */\n      dup2\n        /* \"#utility.yul\":3812:3824   */\n      slt\n        /* \"#utility.yul\":3808:3809   */\n      0x00\n        /* \"#utility.yul\":3805:3806   */\n      dup5\n        /* \"#utility.yul\":3801:3810   */\n      slt\n        /* \"#utility.yul\":3797:3825   */\n      and\n        /* \"#utility.yul\":3780:3781   */\n      dup3\n        /* \"#utility.yul\":3774:3778   */\n      dup3\n        /* \"#utility.yul\":3770:3782   */\n      sgt\n        /* \"#utility.yul\":3765:3766   */\n      0x00\n        /* \"#utility.yul\":3762:3763   */\n      dup6\n        /* \"#utility.yul\":3758:3767   */\n      slt\n        /* \"#utility.yul\":3751:3768   */\n      iszero\n        /* \"#utility.yul\":3747:3783   */\n      and\n        /* \"#utility.yul\":3731:3835   */\n      or\n        /* \"#utility.yul\":3728:3858   */\n      iszero\n      tag_124\n      jumpi\n        /* \"#utility.yul\":3838:3856   */\n      tag_125\n      tag_70\n      jump\t// in\n    tag_125:\n        /* \"#utility.yul\":3728:3858   */\n    tag_124:\n        /* \"#utility.yul\":3493:3865   */\n      swap3\n      swap2\n      pop\n      pop\n      jump\t// out\n        /* \"#utility.yul\":3871:4040   */\n    tag_71:\n        /* \"#utility.yul\":3955:3966   */\n      0x00\n        /* \"#utility.yul\":3989:3995   */\n      dup3\n        /* \"#utility.yul\":3984:3987   */\n      dup3\n        /* \"#utility.yul\":3977:3996   */\n      mstore\n        /* \"#utility.yul\":4029:4033   */\n      0x20\n        /* \"#utility.yul\":4024:4027   */\n      dup3\n        /* \"#utility.yul\":4020:4034   */\n      add\n        /* \"#utility.yul\":4005:4034   */\n      swap1\n      pop\n        /* \"#utility.yul\":3871:4040   */\n      swap3\n      swap2\n      pop\n      pop\n      jump\t// out\n        /* \"#utility.yul\":4046:4214   */\n    tag_72:\n        /* \"#utility.yul\":4186:4206   */\n      0x622073686f756c64206e6f7420626520302e0000000000000000000000000000\n        /* \"#utility.yul\":4182:4183   */\n      0x00\n        /* \"#utility.yul\":4174:4180   */\n      dup3\n        /* \"#utility.yul\":4170:4184   */\n      add\n        /* \"#utility.yul\":4163:4207   */\n      mstore\n        /* \"#utility.yul\":4046:4214   */\n      pop\n      jump\t// out\n        /* \"#utility.yul\":4220:4586   */\n    tag_73:\n        /* \"#utility.yul\":4362:4365   */\n      0x00\n        /* \"#utility.yul\":4383:4450   */\n      tag_129\n        /* \"#utility.yul\":4447:4449   */\n      0x12\n        /* \"#utility.yul\":4442:4445   */\n      dup4\n        /* \"#utility.yul\":4383:4450   */\n      tag_71\n      jump\t// in\n    tag_129:\n        /* \"#utility.yul\":4376:4450   */\n      swap2\n      pop\n        /* \"#utility.yul\":4459:4552   */\n      tag_130\n        /* \"#utility.yul\":4548:4551   */\n      dup3\n        /* \"#utility.yul\":4459:4552   */\n      tag_72\n      jump\t// in\n    tag_130:\n        /* \"#utility.yul\":4577:4579   */\n      0x20\n        /* \"#utility.yul\":4572:4575   */\n      dup3\n        /* \"#utility.yul\":4568:4580   */\n      add\n        /* \"#utility.yul\":4561:4580   */\n      swap1\n      pop\n        /* \"#utility.yul\":4220:4586   */\n      swap2\n      swap1\n      pop\n      jump\t// out\n        /* \"#utility.yul\":4592:5011   */\n    tag_56:\n        /* \"#utility.yul\":4758:4762   */\n      0x00\n        /* \"#utility.yul\":4796:4798   */\n      0x20\n        /* \"#utility.yul\":4785:4794   */\n      dup3\n        /* \"#utility.yul\":4781:4799   */\n      add\n        /* \"#utility.yul\":4773:4799   */\n      swap1\n      pop\n        /* \"#utility.yul\":4845:4854   */\n      dup2\n        /* \"#utility.yul\":4839:4843   */\n      dup2\n        /* \"#utility.yul\":4835:4855   */\n      sub\n        /* \"#utility.yul\":4831:4832   */\n      0x00\n        /* \"#utility.yul\":4820:4829   */\n      dup4\n        /* \"#utility.yul\":4816:4833   */\n      add\n        /* \"#utility.yul\":4809:4856   */\n      mstore\n        /* \"#utility.yul\":4873:5004   */\n      tag_132\n        /* \"#utility.yul\":4999:5003   */\n      dup2\n        /* \"#utility.yul\":4873:5004   */\n      tag_73\n      jump\t// in\n    tag_132:\n        /* \"#utility.yul\":4865:5004   */\n      swap1\n      pop\n        /* \"#utility.yul\":4592:5011   */\n      swap2\n      swap1\n      pop\n      jump\t// out\n        /* \"#utility.yul\":5017:5197   */\n    tag_74:\n        /* \"#utility.yul\":5065:5142   */\n      0x4e487b7100000000000000000000000000000000000000000000000000000000\n        /* \"#utility.yul\":5062:5063   */\n      0x00\n        /* \"#utility.yul\":5055:5143   */\n      mstore\n        /* \"#utility.yul\":5162:5166   */\n      0x12\n        /* \"#utility.yul\":5159:5160   */\n      0x04\n        /* \"#utility.yul\":5152:5167   */\n      mstore\n        /* \"#utility.yul\":5186:5190   */\n      0x24\n        /* \"#utility.yul\":5183:5184   */\n      0x00\n        /* \"#utility.yul\":5176:5191   */\n      revert\n        /* \"#utility.yul\":5203:5388   */\n    tag_58:\n        /* \"#utility.yul\":5243:5244   */\n      0x00\n        /* \"#utility.yul\":5260:5280   */\n      tag_135\n        /* \"#utility.yul\":5278:5279   */\n      dup3\n        /* \"#utility.yul\":5260:5280   */\n      tag_62\n      jump\t// in\n    tag_135:\n        /* \"#utility.yul\":5255:5280   */\n      swap2\n      pop\n        /* \"#utility.yul\":5294:5314   */\n      tag_136\n        /* \"#utility.yul\":5312:5313   */\n      dup4\n        /* \"#utility.yul\":5294:5314   */\n      tag_62\n      jump\t// in\n    tag_136:\n        /* \"#utility.yul\":5289:5314   */\n      swap3\n      pop\n        /* \"#utility.yul\":5333:5334   */\n      dup3\n        /* \"#utility.yul\":5323:5358   */\n      tag_137\n      jumpi\n        /* \"#utility.yul\":5338:5356   */\n      tag_138\n      tag_74\n      jump\t// in\n    tag_138:\n        /* \"#utility.yul\":5323:5358   */\n    tag_137:\n        /* \"#utility.yul\":5380:5381   */\n      dup3\n        /* \"#utility.yul\":5377:5378   */\n      dup3\n        /* \"#utility.yul\":5373:5382   */\n      div\n        /* \"#utility.yul\":5368:5382   */\n      swap1\n      pop\n        /* \"#utility.yul\":5203:5388   */\n      swap3\n      swap2\n      pop\n      pop\n      jump\t// out\n\n    auxdata: 0xa26469706673582212209c993f41ed7c058c04cb4659b4598abbc9819dd5196977b7f1797d76fc57b9aa64736f6c634300081a0033\n}\n",
				"bytecode": {
					"linkReferences": {},
					"object": "6080604052348015600e575f80fd5b506105b38061001c5f395ff3fe608060405234801561000f575f80fd5b5060043610610086575f3560e01c8063771602f711610059578063771602f714610114578063b93ea81214610144578063e7fa24c214610174578063f88e9fbf1461019257610086565b8063165c4a161461008a578063235364aa146100ba57806327e61563146100d857806328aa0179146100f6575b5f80fd5b6100a4600480360381019061009f91906102c8565b6101c2565b6040516100b19190610315565b60405180910390f35b6100c26101e0565b6040516100cf9190610346565b60405180910390f35b6100e06101e6565b6040516100ed9190610315565b60405180910390f35b6100fe6101eb565b60405161010b9190610315565b60405180910390f35b61012e600480360381019061012991906102c8565b6101f1565b60405161013b9190610315565b60405180910390f35b61015e60048036038101906101599190610389565b61020d565b60405161016b9190610346565b60405180910390f35b61017c61022b565b6040516101899190610315565b60405180910390f35b6101ac60048036038101906101a791906102c8565b610231565b6040516101b99190610315565b60405180910390f35b5f81836101cf91906103f4565b600281905550600254905092915050565b60015481565b5f5481565b60025481565b5f81836101fe9190610435565b5f819055505f54905092915050565b5f818361021a9190610468565b600181905550600154905092915050565b60035481565b5f808203610274576040517f08c379a000000000000000000000000000000000000000000000000000000000815260040161026b90610502565b60405180910390fd5b8183610280919061054d565b600381905550600354905092915050565b5f80fd5b5f819050919050565b6102a781610295565b81146102b1575f80fd5b50565b5f813590506102c28161029e565b92915050565b5f80604083850312156102de576102dd610291565b5b5f6102eb858286016102b4565b92505060206102fc858286016102b4565b9150509250929050565b61030f81610295565b82525050565b5f6020820190506103285f830184610306565b92915050565b5f819050919050565b6103408161032e565b82525050565b5f6020820190506103595f830184610337565b92915050565b6103688161032e565b8114610372575f80fd5b50565b5f813590506103838161035f565b92915050565b5f806040838503121561039f5761039e610291565b5b5f6103ac85828601610375565b92505060206103bd85828601610375565b9150509250929050565b7f4e487b71000000000000000000000000000000000000000000000000000000005f52601160045260245ffd5b5f6103fe82610295565b915061040983610295565b925082820261041781610295565b9150828204841483151761042e5761042d6103c7565b5b5092915050565b5f61043f82610295565b915061044a83610295565b9250828201905080821115610462576104616103c7565b5b92915050565b5f6104728261032e565b915061047d8361032e565b925082820390508181125f8412168282135f8512151617156104a2576104a16103c7565b5b92915050565b5f82825260208201905092915050565b7f622073686f756c64206e6f7420626520302e00000000000000000000000000005f82015250565b5f6104ec6012836104a8565b91506104f7826104b8565b602082019050919050565b5f6020820190508181035f830152610519816104e0565b9050919050565b7f4e487b71000000000000000000000000000000000000000000000000000000005f52601260045260245ffd5b5f61055782610295565b915061056283610295565b92508261057257610571610520565b5b82820490509291505056fea26469706673582212209c993f41ed7c058c04cb4659b4598abbc9819dd5196977b7f1797d76fc57b9aa64736f6c634300081a0033",
					"opcodes": "PUSH1 0x80 PUSH1 0x40 MSTORE CALLVALUE DUP1 ISZERO PUSH1 0xE JUMPI PUSH0 DUP1 REVERT JUMPDEST POP PUSH2 0x5B3 DUP1 PUSH2 0x1C PUSH0 CODECOPY PUSH0 RETURN INVALID PUSH1 0x80 PUSH1 0x40 MSTORE CALLVALUE DUP1 ISZERO PUSH2 0xF JUMPI PUSH0 DUP1 REVERT JUMPDEST POP PUSH1 0x4 CALLDATASIZE LT PUSH2 0x86 JUMPI PUSH0 CALLDATALOAD PUSH1 0xE0 SHR DUP1 PUSH4 0x771602F7 GT PUSH2 0x59 JUMPI DUP1 PUSH4 0x771602F7 EQ PUSH2 0x114 JUMPI DUP1 PUSH4 0xB93EA812 EQ PUSH2 0x144 JUMPI DUP1 PUSH4 0xE7FA24C2 EQ PUSH2 0x174 JUMPI DUP1 PUSH4 0xF88E9FBF EQ PUSH2 0x192 JUMPI PUSH2 0x86 JUMP JUMPDEST DUP1 PUSH4 0x165C4A16 EQ PUSH2 0x8A JUMPI DUP1 PUSH4 0x235364AA EQ PUSH2 0xBA JUMPI DUP1 PUSH4 0x27E61563 EQ PUSH2 0xD8 JUMPI DUP1 PUSH4 0x28AA0179 EQ PUSH2 0xF6 JUMPI JUMPDEST PUSH0 DUP1 REVERT JUMPDEST PUSH2 0xA4 PUSH1 0x4 DUP1 CALLDATASIZE SUB DUP2 ADD SWAP1 PUSH2 0x9F SWAP2 SWAP1 PUSH2 0x2C8 JUMP JUMPDEST PUSH2 0x1C2 JUMP JUMPDEST PUSH1 0x40 MLOAD PUSH2 0xB1 SWAP2 SWAP1 PUSH2 0x315 JUMP JUMPDEST PUSH1 0x40 MLOAD DUP1 SWAP2 SUB SWAP1 RETURN JUMPDEST PUSH2 0xC2 PUSH2 0x1E0 JUMP JUMPDEST PUSH1 0x40 MLOAD PUSH2 0xCF SWAP2 SWAP1 PUSH2 0x346 JUMP JUMPDEST PUSH1 0x40 MLOAD DUP1 SWAP2 SUB SWAP1 RETURN JUMPDEST PUSH2 0xE0 PUSH2 0x1E6 JUMP JUMPDEST PUSH1 0x40 MLOAD PUSH2 0xED SWAP2 SWAP1 PUSH2 0x315 JUMP JUMPDEST PUSH1 0x40 MLOAD DUP1 SWAP2 SUB SWAP1 RETURN JUMPDEST PUSH2 0xFE PUSH2 0x1EB JUMP JUMPDEST PUSH1 0x40 MLOAD PUSH2 0x10B SWAP2 SWAP1 PUSH2 0x315 JUMP JUMPDEST PUSH1 0x40 MLOAD DUP1 SWAP2 SUB SWAP1 RETURN JUMPDEST PUSH2 0x12E PUSH1 0x4 DUP1 CALLDATASIZE SUB DUP2 ADD SWAP1 PUSH2 0x129 SWAP2 SWAP1 PUSH2 0x2C8 JUMP JUMPDEST PUSH2 0x1F1 JUMP JUMPDEST PUSH1 0x40 MLOAD PUSH2 0x13B SWAP2 SWAP1 PUSH2 0x315 JUMP JUMPDEST PUSH1 0x40 MLOAD DUP1 SWAP2 SUB SWAP1 RETURN JUMPDEST PUSH2 0x15E PUSH1 0x4 DUP1 CALLDATASIZE SUB DUP2 ADD SWAP1 PUSH2 0x159 SWAP2 SWAP1 PUSH2 0x389 JUMP JUMPDEST PUSH2 0x20D JUMP JUMPDEST PUSH1 0x40 MLOAD PUSH2 0x16B SWAP2 SWAP1 PUSH2 0x346 JUMP JUMPDEST PUSH1 0x40 MLOAD DUP1 SWAP2 SUB SWAP1 RETURN JUMPDEST PUSH2 0x17C PUSH2 0x22B JUMP JUMPDEST PUSH1 0x40 MLOAD PUSH2 0x189 SWAP2 SWAP1 PUSH2 0x315 JUMP JUMPDEST PUSH1 0x40 MLOAD DUP1 SWAP2 SUB SWAP1 RETURN JUMPDEST PUSH2 0x1AC PUSH1 0x4 DUP1 CALLDATASIZE SUB DUP2 ADD SWAP1 PUSH2 0x1A7 SWAP2 SWAP1 PUSH2 0x2C8 JUMP JUMPDEST PUSH2 0x231 JUMP JUMPDEST PUSH1 0x40 MLOAD PUSH2 0x1B9 SWAP2 SWAP1 PUSH2 0x315 JUMP JUMPDEST PUSH1 0x40 MLOAD DUP1 SWAP2 SUB SWAP1 RETURN JUMPDEST PUSH0 DUP2 DUP4 PUSH2 0x1CF SWAP2 SWAP1 PUSH2 0x3F4 JUMP JUMPDEST PUSH1 0x2 DUP2 SWAP1 SSTORE POP PUSH1 0x2 SLOAD SWAP1 POP SWAP3 SWAP2 POP POP JUMP JUMPDEST PUSH1 0x1 SLOAD DUP2 JUMP JUMPDEST PUSH0 SLOAD DUP2 JUMP JUMPDEST PUSH1 0x2 SLOAD DUP2 JUMP JUMPDEST PUSH0 DUP2 DUP4 PUSH2 0x1FE SWAP2 SWAP1 PUSH2 0x435 JUMP JUMPDEST PUSH0 DUP2 SWAP1 SSTORE POP PUSH0 SLOAD SWAP1 POP SWAP3 SWAP2 POP POP JUMP JUMPDEST PUSH0 DUP2 DUP4 PUSH2 0x21A SWAP2 SWAP1 PUSH2 0x468 JUMP JUMPDEST PUSH1 0x1 DUP2 SWAP1 SSTORE POP PUSH1 0x1 SLOAD SWAP1 POP SWAP3 SWAP2 POP POP JUMP JUMPDEST PUSH1 0x3 SLOAD DUP2 JUMP JUMPDEST PUSH0 DUP1 DUP3 SUB PUSH2 0x274 JUMPI PUSH1 0x40 MLOAD PUSH32 0x8C379A000000000000000000000000000000000000000000000000000000000 DUP2 MSTORE PUSH1 0x4 ADD PUSH2 0x26B SWAP1 PUSH2 0x502 JUMP JUMPDEST PUSH1 0x40 MLOAD DUP1 SWAP2 SUB SWAP1 REVERT JUMPDEST DUP2 DUP4 PUSH2 0x280 SWAP2 SWAP1 PUSH2 0x54D JUMP JUMPDEST PUSH1 0x3 DUP2 SWAP1 SSTORE POP PUSH1 0x3 SLOAD SWAP1 POP SWAP3 SWAP2 POP POP JUMP JUMPDEST PUSH0 DUP1 REVERT JUMPDEST PUSH0 DUP2 SWAP1 POP SWAP2 SWAP1 POP JUMP JUMPDEST PUSH2 0x2A7 DUP2 PUSH2 0x295 JUMP JUMPDEST DUP2 EQ PUSH2 0x2B1 JUMPI PUSH0 DUP1 REVERT JUMPDEST POP JUMP JUMPDEST PUSH0 DUP2 CALLDATALOAD SWAP1 POP PUSH2 0x2C2 DUP2 PUSH2 0x29E JUMP JUMPDEST SWAP3 SWAP2 POP POP JUMP JUMPDEST PUSH0 DUP1 PUSH1 0x40 DUP4 DUP6 SUB SLT ISZERO PUSH2 0x2DE JUMPI PUSH2 0x2DD PUSH2 0x291 JUMP JUMPDEST JUMPDEST PUSH0 PUSH2 0x2EB DUP6 DUP3 DUP7 ADD PUSH2 0x2B4 JUMP JUMPDEST SWAP3 POP POP PUSH1 0x20 PUSH2 0x2FC DUP6 DUP3 DUP7 ADD PUSH2 0x2B4 JUMP JUMPDEST SWAP2 POP POP SWAP3 POP SWAP3 SWAP1 POP JUMP JUMPDEST PUSH2 0x30F DUP2 PUSH2 0x295 JUMP JUMPDEST DUP3 MSTORE POP POP JUMP JUMPDEST PUSH0 PUSH1 0x20 DUP3 ADD SWAP1 POP PUSH2 0x328 PUSH0 DUP4 ADD DUP5 PUSH2 0x306 JUMP JUMPDEST SWAP3 SWAP2 POP POP JUMP JUMPDEST PUSH0 DUP2 SWAP1 POP SWAP2 SWAP1 POP JUMP JUMPDEST PUSH2 0x340 DUP2 PUSH2 0x32E JUMP JUMPDEST DUP3 MSTORE POP POP JUMP JUMPDEST PUSH0 PUSH1 0x20 DUP3 ADD SWAP1 POP PUSH2 0x359 PUSH0 DUP4 ADD DUP5 PUSH2 0x337 JUMP JUMPDEST SWAP3 SWAP2 POP POP JUMP JUMPDEST PUSH2 0x368 DUP2 PUSH2 0x32E JUMP JUMPDEST DUP2 EQ PUSH2 0x372 JUMPI PUSH0 DUP1 REVERT JUMPDEST POP JUMP JUMPDEST PUSH0 DUP2 CALLDATALOAD SWAP1 POP PUSH2 0x383 DUP2 PUSH2 0x35F JUMP JUMPDEST SWAP3 SWAP2 POP POP JUMP JUMPDEST PUSH0 DUP1 PUSH1 0x40 DUP4 DUP6 SUB SLT ISZERO PUSH2 0x39F JUMPI PUSH2 0x39E PUSH2 0x291 JUMP JUMPDEST JUMPDEST PUSH0 PUSH2 0x3AC DUP6 DUP3 DUP7 ADD PUSH2 0x375 JUMP JUMPDEST SWAP3 POP POP PUSH1 0x20 PUSH2 0x3BD DUP6 DUP3 DUP7 ADD PUSH2 0x375 JUMP JUMPDEST SWAP2 POP POP SWAP3 POP SWAP3 SWAP1 POP JUMP JUMPDEST PUSH32 0x4E487B7100000000000000000000000000000000000000000000000000000000 PUSH0 MSTORE PUSH1 0x11 PUSH1 0x4 MSTORE PUSH1 0x24 PUSH0 REVERT JUMPDEST PUSH0 PUSH2 0x3FE DUP3 PUSH2 0x295 JUMP JUMPDEST SWAP2 POP PUSH2 0x409 DUP4 PUSH2 0x295 JUMP JUMPDEST SWAP3 POP DUP3 DUP3 MUL PUSH2 0x417 DUP2 PUSH2 0x295 JUMP JUMPDEST SWAP2 POP DUP3 DUP3 DIV DUP5 EQ DUP4 ISZERO OR PUSH2 0x42E JUMPI PUSH2 0x42D PUSH2 0x3C7 JUMP JUMPDEST JUMPDEST POP SWAP3 SWAP2 POP POP JUMP JUMPDEST PUSH0 PUSH2 0x43F DUP3 PUSH2 0x295 JUMP JUMPDEST SWAP2 POP PUSH2 0x44A DUP4 PUSH2 0x295 JUMP JUMPDEST SWAP3 POP DUP3 DUP3 ADD SWAP1 POP DUP1 DUP3 GT ISZERO PUSH2 0x462 JUMPI PUSH2 0x461 PUSH2 0x3C7 JUMP JUMPDEST JUMPDEST SWAP3 SWAP2 POP POP JUMP JUMPDEST PUSH0 PUSH2 0x472 DUP3 PUSH2 0x32E JUMP JUMPDEST SWAP2 POP PUSH2 0x47D DUP4 PUSH2 0x32E JUMP JUMPDEST SWAP3 POP DUP3 DUP3 SUB SWAP1 POP DUP2 DUP2 SLT PUSH0 DUP5 SLT AND DUP3 DUP3 SGT PUSH0 DUP6 SLT ISZERO AND OR ISZERO PUSH2 0x4A2 JUMPI PUSH2 0x4A1 PUSH2 0x3C7 JUMP JUMPDEST JUMPDEST SWAP3 SWAP2 POP POP JUMP JUMPDEST PUSH0 DUP3 DUP3 MSTORE PUSH1 0x20 DUP3 ADD SWAP1 POP SWAP3 SWAP2 POP POP JUMP JUMPDEST PUSH32 0x622073686F756C64206E6F7420626520302E0000000000000000000000000000 PUSH0 DUP3 ADD MSTORE POP JUMP JUMPDEST PUSH0 PUSH2 0x4EC PUSH1 0x12 DUP4 PUSH2 0x4A8 JUMP JUMPDEST SWAP2 POP PUSH2 0x4F7 DUP3 PUSH2 0x4B8 JUMP JUMPDEST PUSH1 0x20 DUP3 ADD SWAP1 POP SWAP2 SWAP1 POP JUMP JUMPDEST PUSH0 PUSH1 0x20 DUP3 ADD SWAP1 POP DUP2 DUP2 SUB PUSH0 DUP4 ADD MSTORE PUSH2 0x519 DUP2 PUSH2 0x4E0 JUMP JUMPDEST SWAP1 POP SWAP2 SWAP1 POP JUMP JUMPDEST PUSH32 0x4E487B7100000000000000000000000000000000000000000000000000000000 PUSH0 MSTORE PUSH1 0x12 PUSH1 0x4 MSTORE PUSH1 0x24 PUSH0 REVERT JUMPDEST PUSH0 PUSH2 0x557 DUP3 PUSH2 0x295 JUMP JUMPDEST SWAP2 POP PUSH2 0x562 DUP4 PUSH2 0x295 JUMP JUMPDEST SWAP3 POP DUP3 PUSH2 0x572 JUMPI PUSH2 0x571 PUSH2 0x520 JUMP JUMPDEST JUMPDEST DUP3 DUP3 DIV SWAP1 POP SWAP3 SWAP2 POP POP JUMP INVALID LOG2 PUSH5 0x6970667358 0x22 SLT KECCAK256 SWAP13 SWAP10 EXTCODEHASH COINBASE 0xED PUSH29 0x58C04CB4659B4598ABBC9819DD5196977B7F1797D76FC57B9AA64736F PUSH13 0x634300081A0033000000000000 "
				},
				"gasEstimates": {
					"creation": {
						"codeDepositCost": "291800",
						"executionCost": "329",
						"totalCost": "292129"
					},
					"external": {
						"Addition()": "2469",
						"Division()": "2469",
						"Multiplication()": "2492",
						"Subtraction()": "2448",
						"add(uint256,uint256)": "infinite",
						"divide(uint256,uint256)": "infinite",
						"multiply(uint256,uint256)": "infinite",
						"subtract(int256,int256)": "infinite"
					}
				},
				"methodIdentifiers": {
					"Addition()": "27e61563",
					"Division()": "e7fa24c2",
					"Multiplication()": "28aa0179",
					"Subtraction()": "235364aa",
					"add(uint256,uint256)": "771602f7",
					"divide(uint256,uint256)": "f88e9fbf",
					"multiply(uint256,uint256)": "165c4a16",
					"subtract(int256,int256)": "b93ea812"
				}
			},
			"storageLayout": {
				"storage": [
					{
						"astId": 3,
						"contract": "contracts/ArithmeticOperations.sol:ArithmeticOperations",
						"label": "Addition",
						"offset": 0,
						"slot": "0",
						"type": "t_uint256"
					},
					{
						"astId": 5,
						"contract": "contracts/ArithmeticOperations.sol:ArithmeticOperations",
						"label": "Subtraction",
						"offset": 0,
						"slot": "1",
						"type": "t_int256"
					},
					{
						"astId": 7,
						"contract": "contracts/ArithmeticOperations.sol:ArithmeticOperations",
						"label": "Multiplication",
						"offset": 0,
						"slot": "2",
						"type": "t_uint256"
					},
					{
						"astId": 9,
						"contract": "contracts/ArithmeticOperations.sol:ArithmeticOperations",
						"label": "Division",
						"offset": 0,
						"slot": "3",
						"type": "t_uint256"
					}
				],
				"types": {
					"t_int256": {
						"encoding": "inplace",
						"label": "int256",
						"numberOfBytes": "32"
					},
					"t_uint256": {
						"encoding": "inplace",
						"label": "uint256",
						"numberOfBytes": "32"
					}
				}
			},
			"userdoc": {
				"kind": "user",
				"methods": {},
				"version": 1
			}
		}
	}
}