{
	"contracts/ArithmeticOperations.sol": {
		"ArithmeticOperations": {
			"abi": [
				{
					"inputs": [],
					"name": "Addition",
					"outputs": [
						{
							"internalType": "uint256",
							"name": "",
							"type": "uint256"
						}
					],
					"stateMutability": "view",
					"type": "function"
				},
				{
					"inputs": [],
					"name": "Division",
					"outputs": [
						{
							"internalType": "uint256",
							"name": "",
							"type": "uint256"
						}
					],
					"stateMutability": "view",
					"type": "function"
				},
				{
					"inputs": [],
					"name": "Multiplication",
					"outputs": [
						{
							"internalType": "uint256",
							"name": "",
							"type": "uint256"
						}
					],
					"stateMutability": "view",
					"type": "function"
				},
				{
					"inputs": [],
					"name": "Subtraction",
					"outputs": [
						{
							"internalType": "uint256",
							"name": "",
							"type": "uint256"
						}
					],
					"stateMutability": "view",
					"type": "function"
				},
				{
					"inputs": [
						{
							"internalType": "uint256",
							"name": "a",
							"type": "uint256"
						},
						{
							"internalType": "uint256",
							"name": "b",
							"type": "uint256"
						}
					],
					"name": "add",
					"outputs": [
						{
							"internalType": "uint256",
							"name": "",
							"type": "uint256"
						}
					],
					"stateMutability": "nonpayable",
					"type": "function"
				},
				{
					"inputs": [
						{
							"internalType": "uint256",
							"name": "a",
							"type": "uint256"
						},
						{
							"internalType": "uint256",
							"name": "b",
							"type": "uint256"
						}
					],
					"name": "divide",
					"outputs": [
						{
							"internalType": "uint256",
							"name": "",
							"type": "uint256"
						}
					],
					"stateMutability": "nonpayable",
					"type": "function"
				},
				{
					"inputs": [
						{
							"internalType": "uint256",
							"name": "a",
							"type": "uint256"
						},
						{
							"internalType": "uint256",
							"name": "b",
							"type": "uint256"
						}
					],
					"name": "multiply",
					"outputs": [
						{
							"internalType": "uint256",
							"name": "",
							"type": "uint256"
						}
					],
					"stateMutability": "nonpayable",
					"type": "function"
				},
				{
					"inputs": [
						{
							"internalType": "uint256",
							"name": "a",
							"type": "uint256"
						},
						{
							"internalType": "uint256",
							"name": "b",
							"type": "uint256"
						}
					],
					"name": "subtract",
					"outputs": [
						{
							"internalType": "uint256",
							"name": "",
							"type": "uint256"
						}
					],
					"stateMutability": "nonpayable",
					"type": "function"
				}
			],
			"devdoc": {
				"kind": "dev",
				"methods": {},
				"version": 1
			},
			"evm": {
				"assembly": "    /* \"contracts/ArithmeticOperations.sol\":59:797  contract ArithmeticOperations{... */\n  mstore(0x40, 0x80)\n  callvalue\n  dup1\n  iszero\n  tag_1\n  jumpi\n  0x00\n  dup1\n  revert\ntag_1:\n  pop\n  dataSize(sub_0)\n  dup1\n  dataOffset(sub_0)\n  0x00\n  codecopy\n  0x00\n  return\nstop\n\nsub_0: assembly {\n        /* \"contracts/ArithmeticOperations.sol\":59:797  contract ArithmeticOperations{... */\n      mstore(0x40, 0x80)\n      callvalue\n      dup1\n      iszero\n      tag_1\n      jumpi\n      0x00\n      dup1\n      revert\n    tag_1:\n      pop\n      jumpi(tag_2, lt(calldatasize, 0x04))\n      shr(0xe0, calldataload(0x00))\n      dup1\n      0x3ef5e445\n      gt\n      tag_11\n      jumpi\n      dup1\n      0x3ef5e445\n      eq\n      tag_7\n      jumpi\n      dup1\n      0x771602f7\n      eq\n      tag_8\n      jumpi\n      dup1\n      0xe7fa24c2\n      eq\n      tag_9\n      jumpi\n      dup1\n      0xf88e9fbf\n      eq\n      tag_10\n      jumpi\n      jump(tag_2)\n    tag_11:\n      dup1\n      0x165c4a16\n      eq\n      tag_3\n      jumpi\n      dup1\n      0x235364aa\n      eq\n      tag_4\n      jumpi\n      dup1\n      0x27e61563\n      eq\n      tag_5\n      jumpi\n      dup1\n      0x28aa0179\n      eq\n      tag_6\n      jumpi\n    tag_2:\n      0x00\n      dup1\n      revert\n        /* \"contracts/ArithmeticOperations.sol\":499:653  function multiply(uint a, uint b) public returns(uint){... */\n    tag_3:\n      tag_12\n      0x04\n      dup1\n      calldatasize\n      sub\n      dup2\n      add\n      swap1\n      tag_13\n      swap2\n      swap1\n      tag_14\n      jump\t// in\n    tag_13:\n      tag_15\n      jump\t// in\n    tag_12:\n      mload(0x40)\n      tag_16\n      swap2\n      swap1\n      tag_17\n      jump\t// in\n    tag_16:\n      mload(0x40)\n      dup1\n      swap2\n      sub\n      swap1\n      return\n        /* \"contracts/ArithmeticOperations.sol\":120:143  uint public Subtraction */\n    tag_4:\n      tag_18\n      tag_19\n      jump\t// in\n    tag_18:\n      mload(0x40)\n      tag_20\n      swap2\n      swap1\n      tag_17\n      jump\t// in\n    tag_20:\n      mload(0x40)\n      dup1\n      swap2\n      sub\n      swap1\n      return\n        /* \"contracts/ArithmeticOperations.sol\":94:114  uint public Addition */\n    tag_5:\n      tag_21\n      tag_22\n      jump\t// in\n    tag_21:\n      mload(0x40)\n      tag_23\n      swap2\n      swap1\n      tag_17\n      jump\t// in\n    tag_23:\n      mload(0x40)\n      dup1\n      swap2\n      sub\n      swap1\n      return\n        /* \"contracts/ArithmeticOperations.sol\":149:175  uint public Multiplication */\n    tag_6:\n      tag_24\n      tag_25\n      jump\t// in\n    tag_24:\n      mload(0x40)\n      tag_26\n      swap2\n      swap1\n      tag_17\n      jump\t// in\n    tag_26:\n      mload(0x40)\n      dup1\n      swap2\n      sub\n      swap1\n      return\n        /* \"contracts/ArithmeticOperations.sol\":345:494  function subtract(uint a, uint b) public returns(uint){... */\n    tag_7:\n      tag_27\n      0x04\n      dup1\n      calldatasize\n      sub\n      dup2\n      add\n      swap1\n      tag_28\n      swap2\n      swap1\n      tag_14\n      jump\t// in\n    tag_28:\n      tag_29\n      jump\t// in\n    tag_27:\n      mload(0x40)\n      tag_30\n      swap2\n      swap1\n      tag_17\n      jump\t// in\n    tag_30:\n      mload(0x40)\n      dup1\n      swap2\n      sub\n      swap1\n      return\n        /* \"contracts/ArithmeticOperations.sol\":208:340  function add(uint a, uint b) public returns(uint){... */\n    tag_8:\n      tag_31\n      0x04\n      dup1\n      calldatasize\n      sub\n      dup2\n      add\n      swap1\n      tag_32\n      swap2\n      swap1\n      tag_14\n      jump\t// in\n    tag_32:\n      tag_33\n      jump\t// in\n    tag_31:\n      mload(0x40)\n      tag_34\n      swap2\n      swap1\n      tag_17\n      jump\t// in\n    tag_34:\n      mload(0x40)\n      dup1\n      swap2\n      sub\n      swap1\n      return\n        /* \"contracts/ArithmeticOperations.sol\":181:201  uint public Division */\n    tag_9:\n      tag_35\n      tag_36\n      jump\t// in\n    tag_35:\n      mload(0x40)\n      tag_37\n      swap2\n      swap1\n      tag_17\n      jump\t// in\n    tag_37:\n      mload(0x40)\n      dup1\n      swap2\n      sub\n      swap1\n      return\n        /* \"contracts/ArithmeticOperations.sol\":658:795  function divide(uint a, uint b) public returns(uint){... */\n    tag_10:\n      tag_38\n      0x04\n      dup1\n      calldatasize\n      sub\n      dup2\n      add\n      swap1\n      tag_39\n      swap2\n      swap1\n      tag_14\n      jump\t// in\n    tag_39:\n      tag_40\n      jump\t// in\n    tag_38:\n      mload(0x40)\n      tag_41\n      swap2\n      swap1\n      tag_17\n      jump\t// in\n    tag_41:\n      mload(0x40)\n      dup1\n      swap2\n      sub\n      swap1\n      return\n        /* \"contracts/ArithmeticOperations.sol\":499:653  function multiply(uint a, uint b) public returns(uint){... */\n    tag_15:\n        /* \"contracts/ArithmeticOperations.sol\":548:552  uint */\n      0x00\n        /* \"contracts/ArithmeticOperations.sol\":613:614  b */\n      dup2\n        /* \"contracts/ArithmeticOperations.sol\":609:610  a */\n      dup4\n        /* \"contracts/ArithmeticOperations.sol\":609:614  a * b */\n      tag_43\n      swap2\n      swap1\n      tag_44\n      jump\t// in\n    tag_43:\n        /* \"contracts/ArithmeticOperations.sol\":592:606  Multiplication */\n      0x02\n        /* \"contracts/ArithmeticOperations.sol\":592:614  Multiplication = a * b */\n      dup2\n      swap1\n      sstore\n      pop\n        /* \"contracts/ArithmeticOperations.sol\":631:645  Multiplication */\n      sload(0x02)\n        /* \"contracts/ArithmeticOperations.sol\":624:646  return(Multiplication) */\n      swap1\n      pop\n        /* \"contracts/ArithmeticOperations.sol\":499:653  function multiply(uint a, uint b) public returns(uint){... */\n      swap3\n      swap2\n      pop\n      pop\n      jump\t// out\n        /* \"contracts/ArithmeticOperations.sol\":120:143  uint public Subtraction */\n    tag_19:\n      sload(0x01)\n      dup2\n      jump\t// out\n        /* \"contracts/ArithmeticOperations.sol\":94:114  uint public Addition */\n    tag_22:\n      sload(0x00)\n      dup2\n      jump\t// out\n        /* \"contracts/ArithmeticOperations.sol\":149:175  uint public Multiplication */\n    tag_25:\n      sload(0x02)\n      dup2\n      jump\t// out\n        /* \"contracts/ArithmeticOperations.sol\":345:494  function subtract(uint a, uint b) public returns(uint){... */\n    tag_29:\n        /* \"contracts/ArithmeticOperations.sol\":394:398  uint */\n      0x00\n        /* \"contracts/ArithmeticOperations.sol\":457:458  b */\n      dup2\n        /* \"contracts/ArithmeticOperations.sol\":453:454  a */\n      dup4\n        /* \"contracts/ArithmeticOperations.sol\":453:458  a - b */\n      tag_46\n      swap2\n      swap1\n      tag_47\n      jump\t// in\n    tag_46:\n        /* \"contracts/ArithmeticOperations.sol\":439:450  Subtraction */\n      0x01\n        /* \"contracts/ArithmeticOperations.sol\":439:458  Subtraction = a - b */\n      dup2\n      swap1\n      sstore\n      pop\n        /* \"contracts/ArithmeticOperations.sol\":475:486  Subtraction */\n      sload(0x01)\n        /* \"contracts/ArithmeticOperations.sol\":468:487  return(Subtraction) */\n      swap1\n      pop\n        /* \"contracts/ArithmeticOperations.sol\":345:494  function subtract(uint a, uint b) public returns(uint){... */\n      swap3\n      swap2\n      pop\n      pop\n      jump\t// out\n        /* \"contracts/ArithmeticOperations.sol\":208:340  function add(uint a, uint b) public returns(uint){... */\n    tag_33:\n        /* \"contracts/ArithmeticOperations.sol\":252:256  uint */\n      0x00\n        /* \"contracts/ArithmeticOperations.sol\":306:307  b */\n      dup2\n        /* \"contracts/ArithmeticOperations.sol\":302:303  a */\n      dup4\n        /* \"contracts/ArithmeticOperations.sol\":302:307  a + b */\n      tag_49\n      swap2\n      swap1\n      tag_50\n      jump\t// in\n    tag_49:\n        /* \"contracts/ArithmeticOperations.sol\":291:299  Addition */\n      0x00\n        /* \"contracts/ArithmeticOperations.sol\":291:307  Addition = a + b */\n      dup2\n      swap1\n      sstore\n      pop\n        /* \"contracts/ArithmeticOperations.sol\":324:332  Addition */\n      sload(0x00)\n        /* \"contracts/ArithmeticOperations.sol\":317:333  return(Addition) */\n      swap1\n      pop\n        /* \"contracts/ArithmeticOperations.sol\":208:340  function add(uint a, uint b) public returns(uint){... */\n      swap3\n      swap2\n      pop\n      pop\n      jump\t// out\n        /* \"contracts/ArithmeticOperations.sol\":181:201  uint public Division */\n    tag_36:\n      sload(0x03)\n      dup2\n      jump\t// out\n        /* \"contracts/ArithmeticOperations.sol\":658:795  function divide(uint a, uint b) public returns(uint){... */\n    tag_40:\n        /* \"contracts/ArithmeticOperations.sol\":705:709  uint */\n      0x00\n        /* \"contracts/ArithmeticOperations.sol\":761:762  b */\n      dup2\n        /* \"contracts/ArithmeticOperations.sol\":757:758  a */\n      dup4\n        /* \"contracts/ArithmeticOperations.sol\":757:762  a / b */\n      tag_52\n      swap2\n      swap1\n      tag_53\n      jump\t// in\n    tag_52:\n        /* \"contracts/ArithmeticOperations.sol\":746:754  Division */\n      0x03\n        /* \"contracts/ArithmeticOperations.sol\":746:762  Division = a / b */\n      dup2\n      swap1\n      sstore\n      pop\n        /* \"contracts/ArithmeticOperations.sol\":779:787  Division */\n      sload(0x03)\n        /* \"contracts/ArithmeticOperations.sol\":772:788  return(Division) */\n      swap1\n      pop\n        /* \"contracts/ArithmeticOperations.sol\":658:795  function divide(uint a, uint b) public returns(uint){... */\n      swap3\n      swap2\n      pop\n      pop\n      jump\t// out\n        /* \"#utility.yul\":88:205   */\n    tag_55:\n        /* \"#utility.yul\":197:198   */\n      0x00\n        /* \"#utility.yul\":194:195   */\n      dup1\n        /* \"#utility.yul\":187:199   */\n      revert\n        /* \"#utility.yul\":334:411   */\n    tag_57:\n        /* \"#utility.yul\":371:378   */\n      0x00\n        /* \"#utility.yul\":400:405   */\n      dup2\n        /* \"#utility.yul\":389:405   */\n      swap1\n      pop\n        /* \"#utility.yul\":334:411   */\n      swap2\n      swap1\n      pop\n      jump\t// out\n        /* \"#utility.yul\":417:539   */\n    tag_58:\n        /* \"#utility.yul\":490:514   */\n      tag_69\n        /* \"#utility.yul\":508:513   */\n      dup2\n        /* \"#utility.yul\":490:514   */\n      tag_57\n      jump\t// in\n    tag_69:\n        /* \"#utility.yul\":483:488   */\n      dup2\n        /* \"#utility.yul\":480:515   */\n      eq\n        /* \"#utility.yul\":470:533   */\n      tag_70\n      jumpi\n        /* \"#utility.yul\":529:530   */\n      0x00\n        /* \"#utility.yul\":526:527   */\n      dup1\n        /* \"#utility.yul\":519:531   */\n      revert\n        /* \"#utility.yul\":470:533   */\n    tag_70:\n        /* \"#utility.yul\":417:539   */\n      pop\n      jump\t// out\n        /* \"#utility.yul\":545:684   */\n    tag_59:\n        /* \"#utility.yul\":591:596   */\n      0x00\n        /* \"#utility.yul\":629:635   */\n      dup2\n        /* \"#utility.yul\":616:636   */\n      calldataload\n        /* \"#utility.yul\":607:636   */\n      swap1\n      pop\n        /* \"#utility.yul\":645:678   */\n      tag_72\n        /* \"#utility.yul\":672:677   */\n      dup2\n        /* \"#utility.yul\":645:678   */\n      tag_58\n      jump\t// in\n    tag_72:\n        /* \"#utility.yul\":545:684   */\n      swap3\n      swap2\n      pop\n      pop\n      jump\t// out\n        /* \"#utility.yul\":690:1164   */\n    tag_14:\n        /* \"#utility.yul\":758:764   */\n      0x00\n        /* \"#utility.yul\":766:772   */\n      dup1\n        /* \"#utility.yul\":815:817   */\n      0x40\n        /* \"#utility.yul\":803:812   */\n      dup4\n        /* \"#utility.yul\":794:801   */\n      dup6\n        /* \"#utility.yul\":790:813   */\n      sub\n        /* \"#utility.yul\":786:818   */\n      slt\n        /* \"#utility.yul\":783:902   */\n      iszero\n      tag_74\n      jumpi\n        /* \"#utility.yul\":821:900   */\n      tag_75\n      tag_55\n      jump\t// in\n    tag_75:\n        /* \"#utility.yul\":783:902   */\n    tag_74:\n        /* \"#utility.yul\":941:942   */\n      0x00\n        /* \"#utility.yul\":966:1019   */\n      tag_76\n        /* \"#utility.yul\":1011:1018   */\n      dup6\n        /* \"#utility.yul\":1002:1008   */\n      dup3\n        /* \"#utility.yul\":991:1000   */\n      dup7\n        /* \"#utility.yul\":987:1009   */\n      add\n        /* \"#utility.yul\":966:1019   */\n      tag_59\n      jump\t// in\n    tag_76:\n        /* \"#utility.yul\":956:1019   */\n      swap3\n      pop\n        /* \"#utility.yul\":912:1029   */\n      pop\n        /* \"#utility.yul\":1068:1070   */\n      0x20\n        /* \"#utility.yul\":1094:1147   */\n      tag_77\n        /* \"#utility.yul\":1139:1146   */\n      dup6\n        /* \"#utility.yul\":1130:1136   */\n      dup3\n        /* \"#utility.yul\":1119:1128   */\n      dup7\n        /* \"#utility.yul\":1115:1137   */\n      add\n        /* \"#utility.yul\":1094:1147   */\n      tag_59\n      jump\t// in\n    tag_77:\n        /* \"#utility.yul\":1084:1147   */\n      swap2\n      pop\n        /* \"#utility.yul\":1039:1157   */\n      pop\n        /* \"#utility.yul\":690:1164   */\n      swap3\n      pop\n      swap3\n      swap1\n      pop\n      jump\t// out\n        /* \"#utility.yul\":1170:1288   */\n    tag_60:\n        /* \"#utility.yul\":1257:1281   */\n      tag_79\n        /* \"#utility.yul\":1275:1280   */\n      dup2\n        /* \"#utility.yul\":1257:1281   */\n      tag_57\n      jump\t// in\n    tag_79:\n        /* \"#utility.yul\":1252:1255   */\n      dup3\n        /* \"#utility.yul\":1245:1282   */\n      mstore\n        /* \"#utility.yul\":1170:1288   */\n      pop\n      pop\n      jump\t// out\n        /* \"#utility.yul\":1294:1516   */\n    tag_17:\n        /* \"#utility.yul\":1387:1391   */\n      0x00\n        /* \"#utility.yul\":1425:1427   */\n      0x20\n        /* \"#utility.yul\":1414:1423   */\n      dup3\n        /* \"#utility.yul\":1410:1428   */\n      add\n        /* \"#utility.yul\":1402:1428   */\n      swap1\n      pop\n        /* \"#utility.yul\":1438:1509   */\n      tag_81\n        /* \"#utility.yul\":1506:1507   */\n      0x00\n        /* \"#utility.yul\":1495:1504   */\n      dup4\n        /* \"#utility.yul\":1491:1508   */\n      add\n        /* \"#utility.yul\":1482:1488   */\n      dup5\n        /* \"#utility.yul\":1438:1509   */\n      tag_60\n      jump\t// in\n    tag_81:\n        /* \"#utility.yul\":1294:1516   */\n      swap3\n      swap2\n      pop\n      pop\n      jump\t// out\n        /* \"#utility.yul\":1522:1702   */\n    tag_61:\n        /* \"#utility.yul\":1570:1647   */\n      0x4e487b7100000000000000000000000000000000000000000000000000000000\n        /* \"#utility.yul\":1567:1568   */\n      0x00\n        /* \"#utility.yul\":1560:1648   */\n      mstore\n        /* \"#utility.yul\":1667:1671   */\n      0x11\n        /* \"#utility.yul\":1664:1665   */\n      0x04\n        /* \"#utility.yul\":1657:1672   */\n      mstore\n        /* \"#utility.yul\":1691:1695   */\n      0x24\n        /* \"#utility.yul\":1688:1689   */\n      0x00\n        /* \"#utility.yul\":1681:1696   */\n      revert\n        /* \"#utility.yul\":1708:2118   */\n    tag_44:\n        /* \"#utility.yul\":1748:1755   */\n      0x00\n        /* \"#utility.yul\":1771:1791   */\n      tag_84\n        /* \"#utility.yul\":1789:1790   */\n      dup3\n        /* \"#utility.yul\":1771:1791   */\n      tag_57\n      jump\t// in\n    tag_84:\n        /* \"#utility.yul\":1766:1791   */\n      swap2\n      pop\n        /* \"#utility.yul\":1805:1825   */\n      tag_85\n        /* \"#utility.yul\":1823:1824   */\n      dup4\n        /* \"#utility.yul\":1805:1825   */\n      tag_57\n      jump\t// in\n    tag_85:\n        /* \"#utility.yul\":1800:1825   */\n      swap3\n      pop\n        /* \"#utility.yul\":1860:1861   */\n      dup3\n        /* \"#utility.yul\":1857:1858   */\n      dup3\n        /* \"#utility.yul\":1853:1862   */\n      mul\n        /* \"#utility.yul\":1882:1912   */\n      tag_86\n        /* \"#utility.yul\":1900:1911   */\n      dup2\n        /* \"#utility.yul\":1882:1912   */\n      tag_57\n      jump\t// in\n    tag_86:\n        /* \"#utility.yul\":1871:1912   */\n      swap2\n      pop\n        /* \"#utility.yul\":2061:2062   */\n      dup3\n        /* \"#utility.yul\":2052:2059   */\n      dup3\n        /* \"#utility.yul\":2048:2063   */\n      div\n        /* \"#utility.yul\":2045:2046   */\n      dup5\n        /* \"#utility.yul\":2042:2064   */\n      eq\n        /* \"#utility.yul\":2022:2023   */\n      dup4\n        /* \"#utility.yul\":2015:2024   */\n      iszero\n        /* \"#utility.yul\":1995:2078   */\n      or\n        /* \"#utility.yul\":1972:2111   */\n      tag_87\n      jumpi\n        /* \"#utility.yul\":2091:2109   */\n      tag_88\n      tag_61\n      jump\t// in\n    tag_88:\n        /* \"#utility.yul\":1972:2111   */\n    tag_87:\n        /* \"#utility.yul\":1756:2118   */\n      pop\n        /* \"#utility.yul\":1708:2118   */\n      swap3\n      swap2\n      pop\n      pop\n      jump\t// out\n        /* \"#utility.yul\":2124:2318   */\n    tag_47:\n        /* \"#utility.yul\":2164:2168   */\n      0x00\n        /* \"#utility.yul\":2184:2204   */\n      tag_90\n        /* \"#utility.yul\":2202:2203   */\n      dup3\n        /* \"#utility.yul\":2184:2204   */\n      tag_57\n      jump\t// in\n    tag_90:\n        /* \"#utility.yul\":2179:2204   */\n      swap2\n      pop\n        /* \"#utility.yul\":2218:2238   */\n      tag_91\n        /* \"#utility.yul\":2236:2237   */\n      dup4\n        /* \"#utility.yul\":2218:2238   */\n      tag_57\n      jump\t// in\n    tag_91:\n        /* \"#utility.yul\":2213:2238   */\n      swap3\n      pop\n        /* \"#utility.yul\":2262:2263   */\n      dup3\n        /* \"#utility.yul\":2259:2260   */\n      dup3\n        /* \"#utility.yul\":2255:2264   */\n      sub\n        /* \"#utility.yul\":2247:2264   */\n      swap1\n      pop\n        /* \"#utility.yul\":2286:2287   */\n      dup2\n        /* \"#utility.yul\":2280:2284   */\n      dup2\n        /* \"#utility.yul\":2277:2288   */\n      gt\n        /* \"#utility.yul\":2274:2311   */\n      iszero\n      tag_92\n      jumpi\n        /* \"#utility.yul\":2291:2309   */\n      tag_93\n      tag_61\n      jump\t// in\n    tag_93:\n        /* \"#utility.yul\":2274:2311   */\n    tag_92:\n        /* \"#utility.yul\":2124:2318   */\n      swap3\n      swap2\n      pop\n      pop\n      jump\t// out\n        /* \"#utility.yul\":2324:2515   */\n    tag_50:\n        /* \"#utility.yul\":2364:2367   */\n      0x00\n        /* \"#utility.yul\":2383:2403   */\n      tag_95\n        /* \"#utility.yul\":2401:2402   */\n      dup3\n        /* \"#utility.yul\":2383:2403   */\n      tag_57\n      jump\t// in\n    tag_95:\n        /* \"#utility.yul\":2378:2403   */\n      swap2\n      pop\n        /* \"#utility.yul\":2417:2437   */\n      tag_96\n        /* \"#utility.yul\":2435:2436   */\n      dup4\n        /* \"#utility.yul\":2417:2437   */\n      tag_57\n      jump\t// in\n    tag_96:\n        /* \"#utility.yul\":2412:2437   */\n      swap3\n      pop\n        /* \"#utility.yul\":2460:2461   */\n      dup3\n        /* \"#utility.yul\":2457:2458   */\n      dup3\n        /* \"#utility.yul\":2453:2462   */\n      add\n        /* \"#utility.yul\":2446:2462   */\n      swap1\n      pop\n        /* \"#utility.yul\":2481:2484   */\n      dup1\n        /* \"#utility.yul\":2478:2479   */\n      dup3\n        /* \"#utility.yul\":2475:2485   */\n      gt\n        /* \"#utility.yul\":2472:2508   */\n      iszero\n      tag_97\n      jumpi\n        /* \"#utility.yul\":2488:2506   */\n      tag_98\n      tag_61\n      jump\t// in\n    tag_98:\n        /* \"#utility.yul\":2472:2508   */\n    tag_97:\n        /* \"#utility.yul\":2324:2515   */\n      swap3\n      swap2\n      pop\n      pop\n      jump\t// out\n        /* \"#utility.yul\":2521:2701   */\n    tag_62:\n        /* \"#utility.yul\":2569:2646   */\n      0x4e487b7100000000000000000000000000000000000000000000000000000000\n        /* \"#utility.yul\":2566:2567   */\n      0x00\n        /* \"#utility.yul\":2559:2647   */\n      mstore\n        /* \"#utility.yul\":2666:2670   */\n      0x12\n        /* \"#utility.yul\":2663:2664   */\n      0x04\n        /* \"#utility.yul\":2656:2671   */\n      mstore\n        /* \"#utility.yul\":2690:2694   */\n      0x24\n        /* \"#utility.yul\":2687:2688   */\n      0x00\n        /* \"#utility.yul\":2680:2695   */\n      revert\n        /* \"#utility.yul\":2707:2892   */\n    tag_53:\n        /* \"#utility.yul\":2747:2748   */\n      0x00\n        /* \"#utility.yul\":2764:2784   */\n      tag_101\n        /* \"#utility.yul\":2782:2783   */\n      dup3\n        /* \"#utility.yul\":2764:2784   */\n      tag_57\n      jump\t// in\n    tag_101:\n        /* \"#utility.yul\":2759:2784   */\n      swap2\n      pop\n        /* \"#utility.yul\":2798:2818   */\n      tag_102\n        /* \"#utility.yul\":2816:2817   */\n      dup4\n        /* \"#utility.yul\":2798:2818   */\n      tag_57\n      jump\t// in\n    tag_102:\n        /* \"#utility.yul\":2793:2818   */\n      swap3\n      pop\n        /* \"#utility.yul\":2837:2838   */\n      dup3\n        /* \"#utility.yul\":2827:2862   */\n      tag_103\n      jumpi\n        /* \"#utility.yul\":2842:2860   */\n      tag_104\n      tag_62\n      jump\t// in\n    tag_104:\n        /* \"#utility.yul\":2827:2862   */\n    tag_103:\n        /* \"#utility.yul\":2884:2885   */\n      dup3\n        /* \"#utility.yul\":2881:2882   */\n      dup3\n        /* \"#utility.yul\":2877:2886   */\n      div\n        /* \"#utility.yul\":2872:2886   */\n      swap1\n      pop\n        /* \"#utility.yul\":2707:2892   */\n      swap3\n      swap2\n      pop\n      pop\n      jump\t// out\n\n    auxdata: 0xa2646970667358221220706cc6331448ab5611f1c0a6051241be5f9a5ce070502035dac60793ba9002ac64736f6c634300081a0033\n}\n",
				"bytecode": {
					"linkReferences": {},
					"object": "6080604052348015600e575f80fd5b506104538061001c5f395ff3fe608060405234801561000f575f80fd5b5060043610610086575f3560e01c80633ef5e445116100595780633ef5e44514610114578063771602f714610144578063e7fa24c214610174578063f88e9fbf1461019257610086565b8063165c4a161461008a578063235364aa146100ba57806327e61563146100d857806328aa0179146100f6575b5f80fd5b6100a4600480360381019061009f9190610286565b6101c2565b6040516100b191906102d3565b60405180910390f35b6100c26101e0565b6040516100cf91906102d3565b60405180910390f35b6100e06101e6565b6040516100ed91906102d3565b60405180910390f35b6100fe6101eb565b60405161010b91906102d3565b60405180910390f35b61012e60048036038101906101299190610286565b6101f1565b60405161013b91906102d3565b60405180910390f35b61015e60048036038101906101599190610286565b61020f565b60405161016b91906102d3565b60405180910390f35b61017c61022b565b60405161018991906102d3565b60405180910390f35b6101ac60048036038101906101a79190610286565b610231565b6040516101b991906102d3565b60405180910390f35b5f81836101cf9190610319565b600281905550600254905092915050565b60015481565b5f5481565b60025481565b5f81836101fe919061035a565b600181905550600154905092915050565b5f818361021c919061038d565b5f819055505f54905092915050565b60035481565b5f818361023e91906103ed565b600381905550600354905092915050565b5f80fd5b5f819050919050565b61026581610253565b811461026f575f80fd5b50565b5f813590506102808161025c565b92915050565b5f806040838503121561029c5761029b61024f565b5b5f6102a985828601610272565b92505060206102ba85828601610272565b9150509250929050565b6102cd81610253565b82525050565b5f6020820190506102e65f8301846102c4565b92915050565b7f4e487b71000000000000000000000000000000000000000000000000000000005f52601160045260245ffd5b5f61032382610253565b915061032e83610253565b925082820261033c81610253565b91508282048414831517610353576103526102ec565b5b5092915050565b5f61036482610253565b915061036f83610253565b9250828203905081811115610387576103866102ec565b5b92915050565b5f61039782610253565b91506103a283610253565b92508282019050808211156103ba576103b96102ec565b5b92915050565b7f4e487b71000000000000000000000000000000000000000000000000000000005f52601260045260245ffd5b5f6103f782610253565b915061040283610253565b925082610412576104116103c0565b5b82820490509291505056fea2646970667358221220706cc6331448ab5611f1c0a6051241be5f9a5ce070502035dac60793ba9002ac64736f6c634300081a0033",
					"opcodes": "PUSH1 0x80 PUSH1 0x40 MSTORE CALLVALUE DUP1 ISZERO PUSH1 0xE JUMPI PUSH0 DUP1 REVERT JUMPDEST POP PUSH2 0x453 DUP1 PUSH2 0x1C PUSH0 CODECOPY PUSH0 RETURN INVALID PUSH1 0x80 PUSH1 0x40 MSTORE CALLVALUE DUP1 ISZERO PUSH2 0xF JUMPI PUSH0 DUP1 REVERT JUMPDEST POP PUSH1 0x4 CALLDATASIZE LT PUSH2 0x86 JUMPI PUSH0 CALLDATALOAD PUSH1 0xE0 SHR DUP1 PUSH4 0x3EF5E445 GT PUSH2 0x59 JUMPI DUP1 PUSH4 0x3EF5E445 EQ PUSH2 0x114 JUMPI DUP1 PUSH4 0x771602F7 EQ PUSH2 0x144 JUMPI DUP1 PUSH4 0xE7FA24C2 EQ PUSH2 0x174 JUMPI DUP1 PUSH4 0xF88E9FBF EQ PUSH2 0x192 JUMPI PUSH2 0x86 JUMP JUMPDEST DUP1 PUSH4 0x165C4A16 EQ PUSH2 0x8A JUMPI DUP1 PUSH4 0x235364AA EQ PUSH2 0xBA JUMPI DUP1 PUSH4 0x27E61563 EQ PUSH2 0xD8 JUMPI DUP1 PUSH4 0x28AA0179 EQ PUSH2 0xF6 JUMPI JUMPDEST PUSH0 DUP1 REVERT JUMPDEST PUSH2 0xA4 PUSH1 0x4 DUP1 CALLDATASIZE SUB DUP2 ADD SWAP1 PUSH2 0x9F SWAP2 SWAP1 PUSH2 0x286 JUMP JUMPDEST PUSH2 0x1C2 JUMP JUMPDEST PUSH1 0x40 MLOAD PUSH2 0xB1 SWAP2 SWAP1 PUSH2 0x2D3 JUMP JUMPDEST PUSH1 0x40 MLOAD DUP1 SWAP2 SUB SWAP1 RETURN JUMPDEST PUSH2 0xC2 PUSH2 0x1E0 JUMP JUMPDEST PUSH1 0x40 MLOAD PUSH2 0xCF SWAP2 SWAP1 PUSH2 0x2D3 JUMP JUMPDEST PUSH1 0x40 MLOAD DUP1 SWAP2 SUB SWAP1 RETURN JUMPDEST PUSH2 0xE0 PUSH2 0x1E6 JUMP JUMPDEST PUSH1 0x40 MLOAD PUSH2 0xED SWAP2 SWAP1 PUSH2 0x2D3 JUMP JUMPDEST PUSH1 0x40 MLOAD DUP1 SWAP2 SUB SWAP1 RETURN JUMPDEST PUSH2 0xFE PUSH2 0x1EB JUMP JUMPDEST PUSH1 0x40 MLOAD PUSH2 0x10B SWAP2 SWAP1 PUSH2 0x2D3 JUMP JUMPDEST PUSH1 0x40 MLOAD DUP1 SWAP2 SUB SWAP1 RETURN JUMPDEST PUSH2 0x12E PUSH1 0x4 DUP1 CALLDATASIZE SUB DUP2 ADD SWAP1 PUSH2 0x129 SWAP2 SWAP1 PUSH2 0x286 JUMP JUMPDEST PUSH2 0x1F1 JUMP JUMPDEST PUSH1 0x40 MLOAD PUSH2 0x13B SWAP2 SWAP1 PUSH2 0x2D3 JUMP JUMPDEST PUSH1 0x40 MLOAD DUP1 SWAP2 SUB SWAP1 RETURN JUMPDEST PUSH2 0x15E PUSH1 0x4 DUP1 CALLDATASIZE SUB DUP2 ADD SWAP1 PUSH2 0x159 SWAP2 SWAP1 PUSH2 0x286 JUMP JUMPDEST PUSH2 0x20F JUMP JUMPDEST PUSH1 0x40 MLOAD PUSH2 0x16B SWAP2 SWAP1 PUSH2 0x2D3 JUMP JUMPDEST PUSH1 0x40 MLOAD DUP1 SWAP2 SUB SWAP1 RETURN JUMPDEST PUSH2 0x17C PUSH2 0x22B JUMP JUMPDEST PUSH1 0x40 MLOAD PUSH2 0x189 SWAP2 SWAP1 PUSH2 0x2D3 JUMP JUMPDEST PUSH1 0x40 MLOAD DUP1 SWAP2 SUB SWAP1 RETURN JUMPDEST PUSH2 0x1AC PUSH1 0x4 DUP1 CALLDATASIZE SUB DUP2 ADD SWAP1 PUSH2 0x1A7 SWAP2 SWAP1 PUSH2 0x286 JUMP JUMPDEST PUSH2 0x231 JUMP JUMPDEST PUSH1 0x40 MLOAD PUSH2 0x1B9 SWAP2 SWAP1 PUSH2 0x2D3 JUMP JUMPDEST PUSH1 0x40 MLOAD DUP1 SWAP2 SUB SWAP1 RETURN JUMPDEST PUSH0 DUP2 DUP4 PUSH2 0x1CF SWAP2 SWAP1 PUSH2 0x319 JUMP JUMPDEST PUSH1 0x2 DUP2 SWAP1 SSTORE POP PUSH1 0x2 SLOAD SWAP1 POP SWAP3 SWAP2 POP POP JUMP JUMPDEST PUSH1 0x1 SLOAD DUP2 JUMP JUMPDEST PUSH0 SLOAD DUP2 JUMP JUMPDEST PUSH1 0x2 SLOAD DUP2 JUMP JUMPDEST PUSH0 DUP2 DUP4 PUSH2 0x1FE SWAP2 SWAP1 PUSH2 0x35A JUMP JUMPDEST PUSH1 0x1 DUP2 SWAP1 SSTORE POP PUSH1 0x1 SLOAD SWAP1 POP SWAP3 SWAP2 POP POP JUMP JUMPDEST PUSH0 DUP2 DUP4 PUSH2 0x21C SWAP2 SWAP1 PUSH2 0x38D JUMP JUMPDEST PUSH0 DUP2 SWAP1 SSTORE POP PUSH0 SLOAD SWAP1 POP SWAP3 SWAP2 POP POP JUMP JUMPDEST PUSH1 0x3 SLOAD DUP2 JUMP JUMPDEST PUSH0 DUP2 DUP4 PUSH2 0x23E SWAP2 SWAP1 PUSH2 0x3ED JUMP JUMPDEST PUSH1 0x3 DUP2 SWAP1 SSTORE POP PUSH1 0x3 SLOAD SWAP1 POP SWAP3 SWAP2 POP POP JUMP JUMPDEST PUSH0 DUP1 REVERT JUMPDEST PUSH0 DUP2 SWAP1 POP SWAP2 SWAP1 POP JUMP JUMPDEST PUSH2 0x265 DUP2 PUSH2 0x253 JUMP JUMPDEST DUP2 EQ PUSH2 0x26F JUMPI PUSH0 DUP1 REVERT JUMPDEST POP JUMP JUMPDEST PUSH0 DUP2 CALLDATALOAD SWAP1 POP PUSH2 0x280 DUP2 PUSH2 0x25C JUMP JUMPDEST SWAP3 SWAP2 POP POP JUMP JUMPDEST PUSH0 DUP1 PUSH1 0x40 DUP4 DUP6 SUB SLT ISZERO PUSH2 0x29C JUMPI PUSH2 0x29B PUSH2 0x24F JUMP JUMPDEST JUMPDEST PUSH0 PUSH2 0x2A9 DUP6 DUP3 DUP7 ADD PUSH2 0x272 JUMP JUMPDEST SWAP3 POP POP PUSH1 0x20 PUSH2 0x2BA DUP6 DUP3 DUP7 ADD PUSH2 0x272 JUMP JUMPDEST SWAP2 POP POP SWAP3 POP SWAP3 SWAP1 POP JUMP JUMPDEST PUSH2 0x2CD DUP2 PUSH2 0x253 JUMP JUMPDEST DUP3 MSTORE POP POP JUMP JUMPDEST PUSH0 PUSH1 0x20 DUP3 ADD SWAP1 POP PUSH2 0x2E6 PUSH0 DUP4 ADD DUP5 PUSH2 0x2C4 JUMP JUMPDEST SWAP3 SWAP2 POP POP JUMP JUMPDEST PUSH32 0x4E487B7100000000000000000000000000000000000000000000000000000000 PUSH0 MSTORE PUSH1 0x11 PUSH1 0x4 MSTORE PUSH1 0x24 PUSH0 REVERT JUMPDEST PUSH0 PUSH2 0x323 DUP3 PUSH2 0x253 JUMP JUMPDEST SWAP2 POP PUSH2 0x32E DUP4 PUSH2 0x253 JUMP JUMPDEST SWAP3 POP DUP3 DUP3 MUL PUSH2 0x33C DUP2 PUSH2 0x253 JUMP JUMPDEST SWAP2 POP DUP3 DUP3 DIV DUP5 EQ DUP4 ISZERO OR PUSH2 0x353 JUMPI PUSH2 0x352 PUSH2 0x2EC JUMP JUMPDEST JUMPDEST POP SWAP3 SWAP2 POP POP JUMP JUMPDEST PUSH0 PUSH2 0x364 DUP3 PUSH2 0x253 JUMP JUMPDEST SWAP2 POP PUSH2 0x36F DUP4 PUSH2 0x253 JUMP JUMPDEST SWAP3 POP DUP3 DUP3 SUB SWAP1 POP DUP2 DUP2 GT ISZERO PUSH2 0x387 JUMPI PUSH2 0x386 PUSH2 0x2EC JUMP JUMPDEST JUMPDEST SWAP3 SWAP2 POP POP JUMP JUMPDEST PUSH0 PUSH2 0x397 DUP3 PUSH2 0x253 JUMP JUMPDEST SWAP2 POP PUSH2 0x3A2 DUP4 PUSH2 0x253 JUMP JUMPDEST SWAP3 POP DUP3 DUP3 ADD SWAP1 POP DUP1 DUP3 GT ISZERO PUSH2 0x3BA JUMPI PUSH2 0x3B9 PUSH2 0x2EC JUMP JUMPDEST JUMPDEST SWAP3 SWAP2 POP POP JUMP JUMPDEST PUSH32 0x4E487B7100000000000000000000000000000000000000000000000000000000 PUSH0 MSTORE PUSH1 0x12 PUSH1 0x4 MSTORE PUSH1 0x24 PUSH0 REVERT JUMPDEST PUSH0 PUSH2 0x3F7 DUP3 PUSH2 0x253 JUMP JUMPDEST SWAP2 POP PUSH2 0x402 DUP4 PUSH2 0x253 JUMP JUMPDEST SWAP3 POP DUP3 PUSH2 0x412 JUMPI PUSH2 0x411 PUSH2 0x3C0 JUMP JUMPDEST JUMPDEST DUP3 DUP3 DIV SWAP1 POP SWAP3 SWAP2 POP POP JUMP INVALID LOG2 PUSH5 0x6970667358 0x22 SLT KECCAK256 PUSH17 0x6CC6331448AB5611F1C0A6051241BE5F9A TLOAD 0xE0 PUSH17 0x502035DAC60793BA9002AC64736F6C6343 STOP ADDMOD BYTE STOP CALLER "
				},
				"gasEstimates": {
					"creation": {
						"codeDepositCost": "221400",
						"executionCost": "261",
						"totalCost": "221661"
					},
					"external": {
						"Addition()": "2469",
						"Division()": "2469",
						"Multiplication()": "2492",
						"Subtraction()": "2448",
						"add(uint256,uint256)": "infinite",
						"divide(uint256,uint256)": "infinite",
						"multiply(uint256,uint256)": "infinite",
						"subtract(uint256,uint256)": "infinite"
					}
				},
				"methodIdentifiers": {
					"Addition()": "27e61563",
					"Division()": "e7fa24c2",
					"Multiplication()": "28aa0179",
					"Subtraction()": "235364aa",
					"add(uint256,uint256)": "771602f7",
					"divide(uint256,uint256)": "f88e9fbf",
					"multiply(uint256,uint256)": "165c4a16",
					"subtract(uint256,uint256)": "3ef5e445"
				}
			},
			"storageLayout": {
				"storage": [
					{
						"astId": 3,
						"contract": "contracts/ArithmeticOperations.sol:ArithmeticOperations",
						"label": "Addition",
						"offset": 0,
						"slot": "0",
						"type": "t_uint256"
					},
					{
						"astId": 5,
						"contract": "contracts/ArithmeticOperations.sol:ArithmeticOperations",
						"label": "Subtraction",
						"offset": 0,
						"slot": "1",
						"type": "t_uint256"
					},
					{
						"astId": 7,
						"contract": "contracts/ArithmeticOperations.sol:ArithmeticOperations",
						"label": "Multiplication",
						"offset": 0,
						"slot": "2",
						"type": "t_uint256"
					},
					{
						"astId": 9,
						"contract": "contracts/ArithmeticOperations.sol:ArithmeticOperations",
						"label": "Division",
						"offset": 0,
						"slot": "3",
						"type": "t_uint256"
					}
				],
				"types": {
					"t_uint256": {
						"encoding": "inplace",
						"label": "uint256",
						"numberOfBytes": "32"
					}
				}
			},
			"userdoc": {
				"kind": "user",
				"methods": {},
				"version": 1
			}
		}
	}
}